{
	"data": {
		"bytecode": {
			"linkReferences": {},
			"object": "608060405260008060006101000a81548163ffffffff021916908363ffffffff16021790555034801561003157600080fd5b50611e5d806100416000396000f3fe608060405234801561001057600080fd5b50600436106100625760003560e01c80635099d497146100675780636f5762f4146100855780638d29931a146100be578063ae9af89d146100ee578063e2caac791461010c578063e3aba04e14610145575b600080fd5b61006f610175565b60405161007c9190611445565b60405180910390f35b61009f600480360381019061009a91906115ba565b610189565b6040516100b59a9998979695949392919061168b565b60405180910390f35b6100d860048036038101906100d39190611768565b6105e3565b6040516100e59190611445565b60405180910390f35b6100f6610a0e565b60405161010391906119f8565b60405180910390f35b61012660048036038101906101219190611a1a565b610dd6565b60405161013c9a9998979695949392919061168b565b60405180910390f35b61015f600480360381019061015a9190611a47565b611032565b60405161016c9190611445565b60405180910390f35b60008054906101000a900463ffffffff1681565b6060806060600080600080600080600080600090505b60008054906101000a900463ffffffff1663ffffffff168163ffffffff1610156105d4578b6040516020016101d49190611ba1565b60405160208183030381529060405280519060200120600160008363ffffffff1663ffffffff16815260200190815260200160002060010160405160200161021c9190611cad565b6040516020818303038152906040528051906020012014156105c157600160008263ffffffff1663ffffffff168152602001908152602001600020600001600160008363ffffffff1663ffffffff168152602001908152602001600020600101600160008463ffffffff1663ffffffff168152602001908152602001600020600201600160008563ffffffff1663ffffffff16815260200190815260200160002060030160009054906101000a900463ffffffff16600160008663ffffffff1663ffffffff16815260200190815260200160002060030160049054906101000a900463ffffffff16600160008763ffffffff1663ffffffff16815260200190815260200160002060030160089054906101000a900463ffffffff16600160008863ffffffff1663ffffffff168152602001908152602001600020600301600c9054906101000a900463ffffffff16600160008963ffffffff1663ffffffff16815260200190815260200160002060030160109054906101000a900463ffffffff16600160008a63ffffffff1663ffffffff16815260200190815260200160002060030160149054906101000a900463ffffffff16600160008b63ffffffff1663ffffffff16815260200190815260200160002060030160189054906101000a900463ffffffff1689805461040f90611be7565b80601f016020809104026020016040519081016040528092919081815260200182805461043b90611be7565b80156104885780601f1061045d57610100808354040283529160200191610488565b820191906000526020600020905b81548152906001019060200180831161046b57829003601f168201915b5050505050995088805461049b90611be7565b80601f01602080910402602001604051908101604052809291908181526020018280546104c790611be7565b80156105145780601f106104e957610100808354040283529160200191610514565b820191906000526020600020905b8154815290600101906020018083116104f757829003601f168201915b5050505050985087805461052790611be7565b80601f016020809104026020016040519081016040528092919081815260200182805461055390611be7565b80156105a05780601f10610575576101008083540402835291602001916105a0565b820191906000526020600020905b81548152906001019060200180831161058357829003601f168201915b505050505097509a509a509a509a509a509a509a509a509a509a50506105d6565b80806105cc90611cf3565b91505061019f565b505b9193959799509193959799565b600060018263ffffffff1614156106945760006004886106039190611d20565b905060006003886106149190611d20565b905060006003886106259190611d20565b905060006003886106369190611d20565b905060006002886106479190611d20565b90506000600f828486888a61065c9190611d5e565b6106669190611d5e565b6106709190611d5e565b61067a9190611d5e565b6106849190611dc7565b9050809650505050505050610a04565b60028263ffffffff1614156107435760006004886106b29190611d20565b905060006004886106c39190611d20565b905060006003886106d49190611d20565b905060006003886106e59190611d20565b905060006002886106f69190611d20565b905060006010828486888a61070b9190611d5e565b6107159190611d5e565b61071f9190611d5e565b6107299190611d5e565b6107339190611dc7565b9050809650505050505050610a04565b60038263ffffffff1614156107f25760006004886107619190611d20565b905060006004886107729190611d20565b905060006003886107839190611d20565b905060006003886107949190611d20565b905060006003886107a59190611d20565b905060006011828486888a6107ba9190611d5e565b6107c49190611d5e565b6107ce9190611d5e565b6107d89190611d5e565b6107e29190611dc7565b9050809650505050505050610a04565b60048263ffffffff1614156108a15760006004886108109190611d20565b905060006004886108219190611d20565b905060006004886108329190611d20565b905060006003886108439190611d20565b905060006003886108549190611d20565b905060006012828486888a6108699190611d5e565b6108739190611d5e565b61087d9190611d5e565b6108879190611d5e565b6108919190611dc7565b9050809650505050505050610a04565b60058263ffffffff1614156109505760006004886108bf9190611d20565b905060006004886108d09190611d20565b905060006004886108e19190611d20565b905060006004886108f29190611d20565b905060006003886109039190611d20565b905060006013828486888a6109189190611d5e565b6109229190611d5e565b61092c9190611d5e565b6109369190611d5e565b6109409190611dc7565b9050809650505050505050610a04565b60068263ffffffff1614156109ff57600060048861096e9190611d20565b9050600060048861097f9190611d20565b905060006004886109909190611d20565b905060006004886109a19190611d20565b905060006004886109b29190611d20565b905060006014828486888a6109c79190611d5e565b6109d19190611d5e565b6109db9190611d5e565b6109e59190611d5e565b6109ef9190611dc7565b9050809650505050505050610a04565b606590505b9695505050505050565b606060008060009054906101000a900463ffffffff1663ffffffff1667ffffffffffffffff811115610a4357610a4261148f565b5b604051908082528060200260200182016040528015610a7c57816020015b610a69611306565b815260200190600190039081610a615790505b50905060005b60008054906101000a900463ffffffff1663ffffffff168163ffffffff161015610dce576000600160008363ffffffff1663ffffffff16815260200190815260200160002090508060405180610140016040529081600082018054610ae690611be7565b80601f0160208091040260200160405190810160405280929190818152602001828054610b1290611be7565b8015610b5f5780601f10610b3457610100808354040283529160200191610b5f565b820191906000526020600020905b815481529060010190602001808311610b4257829003601f168201915b50505050508152602001600182018054610b7890611be7565b80601f0160208091040260200160405190810160405280929190818152602001828054610ba490611be7565b8015610bf15780601f10610bc657610100808354040283529160200191610bf1565b820191906000526020600020905b815481529060010190602001808311610bd457829003601f168201915b50505050508152602001600282018054610c0a90611be7565b80601f0160208091040260200160405190810160405280929190818152602001828054610c3690611be7565b8015610c835780601f10610c5857610100808354040283529160200191610c83565b820191906000526020600020905b815481529060010190602001808311610c6657829003601f168201915b505050505081526020016003820160009054906101000a900463ffffffff1663ffffffff1663ffffffff1681526020016003820160049054906101000a900463ffffffff1663ffffffff1663ffffffff1681526020016003820160089054906101000a900463ffffffff1663ffffffff1663ffffffff16815260200160038201600c9054906101000a900463ffffffff1663ffffffff1663ffffffff1681526020016003820160109054906101000a900463ffffffff1663ffffffff1663ffffffff1681526020016003820160149054906101000a900463ffffffff1663ffffffff1663ffffffff1681526020016003820160189054906101000a900463ffffffff1663ffffffff1663ffffffff1681525050838363ffffffff1681518110610daf57610dae611df8565b5b6020026020010181905250508080610dc690611cf3565b915050610a82565b508091505090565b6001602052806000526040600020600091509050806000018054610df990611be7565b80601f0160208091040260200160405190810160405280929190818152602001828054610e2590611be7565b8015610e725780601f10610e4757610100808354040283529160200191610e72565b820191906000526020600020905b815481529060010190602001808311610e5557829003601f168201915b505050505090806001018054610e8790611be7565b80601f0160208091040260200160405190810160405280929190818152602001828054610eb390611be7565b8015610f005780601f10610ed557610100808354040283529160200191610f00565b820191906000526020600020905b815481529060010190602001808311610ee357829003601f168201915b505050505090806002018054610f1590611be7565b80601f0160208091040260200160405190810160405280929190818152602001828054610f4190611be7565b8015610f8e5780601f10610f6357610100808354040283529160200191610f8e565b820191906000526020600020905b815481529060010190602001808311610f7157829003601f168201915b5050505050908060030160009054906101000a900463ffffffff16908060030160049054906101000a900463ffffffff16908060030160089054906101000a900463ffffffff169080600301600c9054906101000a900463ffffffff16908060030160109054906101000a900463ffffffff16908060030160149054906101000a900463ffffffff16908060030160189054906101000a900463ffffffff1690508a565b60008060008081819054906101000a900463ffffffff168092919061105690611cf3565b91906101000a81548163ffffffff021916908363ffffffff16021790555090508a600160008363ffffffff1663ffffffff16815260200190815260200160002060000190805190602001906110ac929190611383565b5089600160008363ffffffff1663ffffffff16815260200190815260200160002060010190805190602001906110e3929190611383565b5088600160008363ffffffff1663ffffffff168152602001908152602001600020600201908051906020019061111a929190611383565b5087600160008363ffffffff1663ffffffff16815260200190815260200160002060030160006101000a81548163ffffffff021916908363ffffffff16021790555086600160008363ffffffff1663ffffffff16815260200190815260200160002060030160046101000a81548163ffffffff021916908363ffffffff16021790555085600160008363ffffffff1663ffffffff16815260200190815260200160002060030160086101000a81548163ffffffff021916908363ffffffff16021790555084600160008363ffffffff1663ffffffff168152602001908152602001600020600301600c6101000a81548163ffffffff021916908363ffffffff16021790555083600160008363ffffffff1663ffffffff16815260200190815260200160002060030160106101000a81548163ffffffff021916908363ffffffff16021790555082600160008363ffffffff1663ffffffff16815260200190815260200160002060030160146101000a81548163ffffffff021916908363ffffffff16021790555060006112b188888888888e6105e3565b905080600160008463ffffffff1663ffffffff16815260200190815260200160002060030160186101000a81548163ffffffff021916908363ffffffff16021790555081925050509998505050505050505050565b604051806101400160405280606081526020016060815260200160608152602001600063ffffffff168152602001600063ffffffff168152602001600063ffffffff168152602001600063ffffffff168152602001600063ffffffff168152602001600063ffffffff168152602001600063ffffffff1681525090565b82805461138f90611be7565b90600052602060002090601f0160209004810192826113b157600085556113f8565b82601f106113ca57805160ff19168380011785556113f8565b828001600101855582156113f8579182015b828111156113f75782518255916020019190600101906113dc565b5b5090506114059190611409565b5090565b5b8082111561142257600081600090555060010161140a565b5090565b600063ffffffff82169050919050565b61143f81611426565b82525050565b600060208201905061145a6000830184611436565b92915050565b6000604051905090565b600080fd5b600080fd5b600080fd5b600080fd5b6000601f19601f8301169050919050565b7f4e487b7100000000000000000000000000000000000000000000000000000000600052604160045260246000fd5b6114c78261147e565b810181811067ffffffffffffffff821117156114e6576114e561148f565b5b80604052505050565b60006114f9611460565b905061150582826114be565b919050565b600067ffffffffffffffff8211156115255761152461148f565b5b61152e8261147e565b9050602081019050919050565b82818337600083830152505050565b600061155d6115588461150a565b6114ef565b90508281526020810184848401111561157957611578611479565b5b61158484828561153b565b509392505050565b600082601f8301126115a1576115a0611474565b5b81356115b184826020860161154a565b91505092915050565b6000602082840312156115d0576115cf61146a565b5b600082013567ffffffffffffffff8111156115ee576115ed61146f565b5b6115fa8482850161158c565b91505092915050565b600081519050919050565b600082825260208201905092915050565b60005b8381101561163d578082015181840152602081019050611622565b8381111561164c576000848401525b50505050565b600061165d82611603565b611667818561160e565b935061167781856020860161161f565b6116808161147e565b840191505092915050565b60006101408201905081810360008301526116a6818d611652565b905081810360208301526116ba818c611652565b905081810360408301526116ce818b611652565b90506116dd606083018a611436565b6116ea6080830189611436565b6116f760a0830188611436565b61170460c0830187611436565b61171160e0830186611436565b61171f610100830185611436565b61172d610120830184611436565b9b9a5050505050505050505050565b61174581611426565b811461175057600080fd5b50565b6000813590506117628161173c565b92915050565b60008060008060008060c087890312156117855761178461146a565b5b600061179389828a01611753565b96505060206117a489828a01611753565b95505060406117b589828a01611753565b94505060606117c689828a01611753565b93505060806117d789828a01611753565b92505060a06117e889828a01611753565b9150509295509295509295565b600081519050919050565b600082825260208201905092915050565b6000819050602082019050919050565b600082825260208201905092915050565b600061183d82611603565b6118478185611821565b935061185781856020860161161f565b6118608161147e565b840191505092915050565b61187481611426565b82525050565b60006101408301600083015184820360008601526118988282611832565b915050602083015184820360208601526118b28282611832565b915050604083015184820360408601526118cc8282611832565b91505060608301516118e1606086018261186b565b5060808301516118f4608086018261186b565b5060a083015161190760a086018261186b565b5060c083015161191a60c086018261186b565b5060e083015161192d60e086018261186b565b5061010083015161194261010086018261186b565b5061012083015161195761012086018261186b565b508091505092915050565b600061196e838361187a565b905092915050565b6000602082019050919050565b600061198e826117f5565b6119988185611800565b9350836020820285016119aa85611811565b8060005b858110156119e657848403895281516119c78582611962565b94506119d283611976565b925060208a019950506001810190506119ae565b50829750879550505050505092915050565b60006020820190508181036000830152611a128184611983565b905092915050565b600060208284031215611a3057611a2f61146a565b5b6000611a3e84828501611753565b91505092915050565b60008060008060008060008060006101208a8c031215611a6a57611a6961146a565b5b60008a013567ffffffffffffffff811115611a8857611a8761146f565b5b611a948c828d0161158c565b99505060208a013567ffffffffffffffff811115611ab557611ab461146f565b5b611ac18c828d0161158c565b98505060408a013567ffffffffffffffff811115611ae257611ae161146f565b5b611aee8c828d0161158c565b9750506060611aff8c828d01611753565b9650506080611b108c828d01611753565b95505060a0611b218c828d01611753565b94505060c0611b328c828d01611753565b93505060e0611b438c828d01611753565b925050610100611b558c828d01611753565b9150509295985092959850929598565b600081905092915050565b6000611b7b82611603565b611b858185611b65565b9350611b9581856020860161161f565b80840191505092915050565b6000611bad8284611b70565b915081905092915050565b7f4e487b7100000000000000000000000000000000000000000000000000000000600052602260045260246000fd5b60006002820490506001821680611bff57607f821691505b60208210811415611c1357611c12611bb8565b5b50919050565b60008190508160005260206000209050919050565b60008154611c3b81611be7565b611c458186611b65565b94506001821660008114611c605760018114611c7157611ca4565b60ff19831686528186019350611ca4565b611c7a85611c19565b60005b83811015611c9c57815481890152600182019150602081019050611c7d565b838801955050505b50505092915050565b6000611cb98284611c2e565b915081905092915050565b7f4e487b7100000000000000000000000000000000000000000000000000000000600052601160045260246000fd5b6000611cfe82611426565b915063ffffffff821415611d1557611d14611cc4565b5b600182019050919050565b6000611d2b82611426565b9150611d3683611426565b92508163ffffffff0483118215151615611d5357611d52611cc4565b5b828202905092915050565b6000611d6982611426565b9150611d7483611426565b92508263ffffffff03821115611d8d57611d8c611cc4565b5b828201905092915050565b7f4e487b7100000000000000000000000000000000000000000000000000000000600052601260045260246000fd5b6000611dd282611426565b9150611ddd83611426565b925082611ded57611dec611d98565b5b828204905092915050565b7f4e487b7100000000000000000000000000000000000000000000000000000000600052603260045260246000fdfea264697066735822122016217c72d392963be09f4f33bec74e0d804ac9ad005ea6408c4be7b04b95108e64736f6c634300080b0033",
			"opcodes": "PUSH1 0x80 PUSH1 0x40 MSTORE PUSH1 0x0 DUP1 PUSH1 0x0 PUSH2 0x100 EXP DUP2 SLOAD DUP2 PUSH4 0xFFFFFFFF MUL NOT AND SWAP1 DUP4 PUSH4 0xFFFFFFFF AND MUL OR SWAP1 SSTORE POP CALLVALUE DUP1 ISZERO PUSH2 0x31 JUMPI PUSH1 0x0 DUP1 REVERT JUMPDEST POP PUSH2 0x1E5D DUP1 PUSH2 0x41 PUSH1 0x0 CODECOPY PUSH1 0x0 RETURN INVALID PUSH1 0x80 PUSH1 0x40 MSTORE CALLVALUE DUP1 ISZERO PUSH2 0x10 JUMPI PUSH1 0x0 DUP1 REVERT JUMPDEST POP PUSH1 0x4 CALLDATASIZE LT PUSH2 0x62 JUMPI PUSH1 0x0 CALLDATALOAD PUSH1 0xE0 SHR DUP1 PUSH4 0x5099D497 EQ PUSH2 0x67 JUMPI DUP1 PUSH4 0x6F5762F4 EQ PUSH2 0x85 JUMPI DUP1 PUSH4 0x8D29931A EQ PUSH2 0xBE JUMPI DUP1 PUSH4 0xAE9AF89D EQ PUSH2 0xEE JUMPI DUP1 PUSH4 0xE2CAAC79 EQ PUSH2 0x10C JUMPI DUP1 PUSH4 0xE3ABA04E EQ PUSH2 0x145 JUMPI JUMPDEST PUSH1 0x0 DUP1 REVERT JUMPDEST PUSH2 0x6F PUSH2 0x175 JUMP JUMPDEST PUSH1 0x40 MLOAD PUSH2 0x7C SWAP2 SWAP1 PUSH2 0x1445 JUMP JUMPDEST PUSH1 0x40 MLOAD DUP1 SWAP2 SUB SWAP1 RETURN JUMPDEST PUSH2 0x9F PUSH1 0x4 DUP1 CALLDATASIZE SUB DUP2 ADD SWAP1 PUSH2 0x9A SWAP2 SWAP1 PUSH2 0x15BA JUMP JUMPDEST PUSH2 0x189 JUMP JUMPDEST PUSH1 0x40 MLOAD PUSH2 0xB5 SWAP11 SWAP10 SWAP9 SWAP8 SWAP7 SWAP6 SWAP5 SWAP4 SWAP3 SWAP2 SWAP1 PUSH2 0x168B JUMP JUMPDEST PUSH1 0x40 MLOAD DUP1 SWAP2 SUB SWAP1 RETURN JUMPDEST PUSH2 0xD8 PUSH1 0x4 DUP1 CALLDATASIZE SUB DUP2 ADD SWAP1 PUSH2 0xD3 SWAP2 SWAP1 PUSH2 0x1768 JUMP JUMPDEST PUSH2 0x5E3 JUMP JUMPDEST PUSH1 0x40 MLOAD PUSH2 0xE5 SWAP2 SWAP1 PUSH2 0x1445 JUMP JUMPDEST PUSH1 0x40 MLOAD DUP1 SWAP2 SUB SWAP1 RETURN JUMPDEST PUSH2 0xF6 PUSH2 0xA0E JUMP JUMPDEST PUSH1 0x40 MLOAD PUSH2 0x103 SWAP2 SWAP1 PUSH2 0x19F8 JUMP JUMPDEST PUSH1 0x40 MLOAD DUP1 SWAP2 SUB SWAP1 RETURN JUMPDEST PUSH2 0x126 PUSH1 0x4 DUP1 CALLDATASIZE SUB DUP2 ADD SWAP1 PUSH2 0x121 SWAP2 SWAP1 PUSH2 0x1A1A JUMP JUMPDEST PUSH2 0xDD6 JUMP JUMPDEST PUSH1 0x40 MLOAD PUSH2 0x13C SWAP11 SWAP10 SWAP9 SWAP8 SWAP7 SWAP6 SWAP5 SWAP4 SWAP3 SWAP2 SWAP1 PUSH2 0x168B JUMP JUMPDEST PUSH1 0x40 MLOAD DUP1 SWAP2 SUB SWAP1 RETURN JUMPDEST PUSH2 0x15F PUSH1 0x4 DUP1 CALLDATASIZE SUB DUP2 ADD SWAP1 PUSH2 0x15A SWAP2 SWAP1 PUSH2 0x1A47 JUMP JUMPDEST PUSH2 0x1032 JUMP JUMPDEST PUSH1 0x40 MLOAD PUSH2 0x16C SWAP2 SWAP1 PUSH2 0x1445 JUMP JUMPDEST PUSH1 0x40 MLOAD DUP1 SWAP2 SUB SWAP1 RETURN JUMPDEST PUSH1 0x0 DUP1 SLOAD SWAP1 PUSH2 0x100 EXP SWAP1 DIV PUSH4 0xFFFFFFFF AND DUP2 JUMP JUMPDEST PUSH1 0x60 DUP1 PUSH1 0x60 PUSH1 0x0 DUP1 PUSH1 0x0 DUP1 PUSH1 0x0 DUP1 PUSH1 0x0 DUP1 PUSH1 0x0 SWAP1 POP JUMPDEST PUSH1 0x0 DUP1 SLOAD SWAP1 PUSH2 0x100 EXP SWAP1 DIV PUSH4 0xFFFFFFFF AND PUSH4 0xFFFFFFFF AND DUP2 PUSH4 0xFFFFFFFF AND LT ISZERO PUSH2 0x5D4 JUMPI DUP12 PUSH1 0x40 MLOAD PUSH1 0x20 ADD PUSH2 0x1D4 SWAP2 SWAP1 PUSH2 0x1BA1 JUMP JUMPDEST PUSH1 0x40 MLOAD PUSH1 0x20 DUP2 DUP4 SUB SUB DUP2 MSTORE SWAP1 PUSH1 0x40 MSTORE DUP1 MLOAD SWAP1 PUSH1 0x20 ADD KECCAK256 PUSH1 0x1 PUSH1 0x0 DUP4 PUSH4 0xFFFFFFFF AND PUSH4 0xFFFFFFFF AND DUP2 MSTORE PUSH1 0x20 ADD SWAP1 DUP2 MSTORE PUSH1 0x20 ADD PUSH1 0x0 KECCAK256 PUSH1 0x1 ADD PUSH1 0x40 MLOAD PUSH1 0x20 ADD PUSH2 0x21C SWAP2 SWAP1 PUSH2 0x1CAD JUMP JUMPDEST PUSH1 0x40 MLOAD PUSH1 0x20 DUP2 DUP4 SUB SUB DUP2 MSTORE SWAP1 PUSH1 0x40 MSTORE DUP1 MLOAD SWAP1 PUSH1 0x20 ADD KECCAK256 EQ ISZERO PUSH2 0x5C1 JUMPI PUSH1 0x1 PUSH1 0x0 DUP3 PUSH4 0xFFFFFFFF AND PUSH4 0xFFFFFFFF AND DUP2 MSTORE PUSH1 0x20 ADD SWAP1 DUP2 MSTORE PUSH1 0x20 ADD PUSH1 0x0 KECCAK256 PUSH1 0x0 ADD PUSH1 0x1 PUSH1 0x0 DUP4 PUSH4 0xFFFFFFFF AND PUSH4 0xFFFFFFFF AND DUP2 MSTORE PUSH1 0x20 ADD SWAP1 DUP2 MSTORE PUSH1 0x20 ADD PUSH1 0x0 KECCAK256 PUSH1 0x1 ADD PUSH1 0x1 PUSH1 0x0 DUP5 PUSH4 0xFFFFFFFF AND PUSH4 0xFFFFFFFF AND DUP2 MSTORE PUSH1 0x20 ADD SWAP1 DUP2 MSTORE PUSH1 0x20 ADD PUSH1 0x0 KECCAK256 PUSH1 0x2 ADD PUSH1 0x1 PUSH1 0x0 DUP6 PUSH4 0xFFFFFFFF AND PUSH4 0xFFFFFFFF AND DUP2 MSTORE PUSH1 0x20 ADD SWAP1 DUP2 MSTORE PUSH1 0x20 ADD PUSH1 0x0 KECCAK256 PUSH1 0x3 ADD PUSH1 0x0 SWAP1 SLOAD SWAP1 PUSH2 0x100 EXP SWAP1 DIV PUSH4 0xFFFFFFFF AND PUSH1 0x1 PUSH1 0x0 DUP7 PUSH4 0xFFFFFFFF AND PUSH4 0xFFFFFFFF AND DUP2 MSTORE PUSH1 0x20 ADD SWAP1 DUP2 MSTORE PUSH1 0x20 ADD PUSH1 0x0 KECCAK256 PUSH1 0x3 ADD PUSH1 0x4 SWAP1 SLOAD SWAP1 PUSH2 0x100 EXP SWAP1 DIV PUSH4 0xFFFFFFFF AND PUSH1 0x1 PUSH1 0x0 DUP8 PUSH4 0xFFFFFFFF AND PUSH4 0xFFFFFFFF AND DUP2 MSTORE PUSH1 0x20 ADD SWAP1 DUP2 MSTORE PUSH1 0x20 ADD PUSH1 0x0 KECCAK256 PUSH1 0x3 ADD PUSH1 0x8 SWAP1 SLOAD SWAP1 PUSH2 0x100 EXP SWAP1 DIV PUSH4 0xFFFFFFFF AND PUSH1 0x1 PUSH1 0x0 DUP9 PUSH4 0xFFFFFFFF AND PUSH4 0xFFFFFFFF AND DUP2 MSTORE PUSH1 0x20 ADD SWAP1 DUP2 MSTORE PUSH1 0x20 ADD PUSH1 0x0 KECCAK256 PUSH1 0x3 ADD PUSH1 0xC SWAP1 SLOAD SWAP1 PUSH2 0x100 EXP SWAP1 DIV PUSH4 0xFFFFFFFF AND PUSH1 0x1 PUSH1 0x0 DUP10 PUSH4 0xFFFFFFFF AND PUSH4 0xFFFFFFFF AND DUP2 MSTORE PUSH1 0x20 ADD SWAP1 DUP2 MSTORE PUSH1 0x20 ADD PUSH1 0x0 KECCAK256 PUSH1 0x3 ADD PUSH1 0x10 SWAP1 SLOAD SWAP1 PUSH2 0x100 EXP SWAP1 DIV PUSH4 0xFFFFFFFF AND PUSH1 0x1 PUSH1 0x0 DUP11 PUSH4 0xFFFFFFFF AND PUSH4 0xFFFFFFFF AND DUP2 MSTORE PUSH1 0x20 ADD SWAP1 DUP2 MSTORE PUSH1 0x20 ADD PUSH1 0x0 KECCAK256 PUSH1 0x3 ADD PUSH1 0x14 SWAP1 SLOAD SWAP1 PUSH2 0x100 EXP SWAP1 DIV PUSH4 0xFFFFFFFF AND PUSH1 0x1 PUSH1 0x0 DUP12 PUSH4 0xFFFFFFFF AND PUSH4 0xFFFFFFFF AND DUP2 MSTORE PUSH1 0x20 ADD SWAP1 DUP2 MSTORE PUSH1 0x20 ADD PUSH1 0x0 KECCAK256 PUSH1 0x3 ADD PUSH1 0x18 SWAP1 SLOAD SWAP1 PUSH2 0x100 EXP SWAP1 DIV PUSH4 0xFFFFFFFF AND DUP10 DUP1 SLOAD PUSH2 0x40F SWAP1 PUSH2 0x1BE7 JUMP JUMPDEST DUP1 PUSH1 0x1F ADD PUSH1 0x20 DUP1 SWAP2 DIV MUL PUSH1 0x20 ADD PUSH1 0x40 MLOAD SWAP1 DUP2 ADD PUSH1 0x40 MSTORE DUP1 SWAP3 SWAP2 SWAP1 DUP2 DUP2 MSTORE PUSH1 0x20 ADD DUP3 DUP1 SLOAD PUSH2 0x43B SWAP1 PUSH2 0x1BE7 JUMP JUMPDEST DUP1 ISZERO PUSH2 0x488 JUMPI DUP1 PUSH1 0x1F LT PUSH2 0x45D JUMPI PUSH2 0x100 DUP1 DUP4 SLOAD DIV MUL DUP4 MSTORE SWAP2 PUSH1 0x20 ADD SWAP2 PUSH2 0x488 JUMP JUMPDEST DUP3 ADD SWAP2 SWAP1 PUSH1 0x0 MSTORE PUSH1 0x20 PUSH1 0x0 KECCAK256 SWAP1 JUMPDEST DUP2 SLOAD DUP2 MSTORE SWAP1 PUSH1 0x1 ADD SWAP1 PUSH1 0x20 ADD DUP1 DUP4 GT PUSH2 0x46B JUMPI DUP3 SWAP1 SUB PUSH1 0x1F AND DUP3 ADD SWAP2 JUMPDEST POP POP POP POP POP SWAP10 POP DUP9 DUP1 SLOAD PUSH2 0x49B SWAP1 PUSH2 0x1BE7 JUMP JUMPDEST DUP1 PUSH1 0x1F ADD PUSH1 0x20 DUP1 SWAP2 DIV MUL PUSH1 0x20 ADD PUSH1 0x40 MLOAD SWAP1 DUP2 ADD PUSH1 0x40 MSTORE DUP1 SWAP3 SWAP2 SWAP1 DUP2 DUP2 MSTORE PUSH1 0x20 ADD DUP3 DUP1 SLOAD PUSH2 0x4C7 SWAP1 PUSH2 0x1BE7 JUMP JUMPDEST DUP1 ISZERO PUSH2 0x514 JUMPI DUP1 PUSH1 0x1F LT PUSH2 0x4E9 JUMPI PUSH2 0x100 DUP1 DUP4 SLOAD DIV MUL DUP4 MSTORE SWAP2 PUSH1 0x20 ADD SWAP2 PUSH2 0x514 JUMP JUMPDEST DUP3 ADD SWAP2 SWAP1 PUSH1 0x0 MSTORE PUSH1 0x20 PUSH1 0x0 KECCAK256 SWAP1 JUMPDEST DUP2 SLOAD DUP2 MSTORE SWAP1 PUSH1 0x1 ADD SWAP1 PUSH1 0x20 ADD DUP1 DUP4 GT PUSH2 0x4F7 JUMPI DUP3 SWAP1 SUB PUSH1 0x1F AND DUP3 ADD SWAP2 JUMPDEST POP POP POP POP POP SWAP9 POP DUP8 DUP1 SLOAD PUSH2 0x527 SWAP1 PUSH2 0x1BE7 JUMP JUMPDEST DUP1 PUSH1 0x1F ADD PUSH1 0x20 DUP1 SWAP2 DIV MUL PUSH1 0x20 ADD PUSH1 0x40 MLOAD SWAP1 DUP2 ADD PUSH1 0x40 MSTORE DUP1 SWAP3 SWAP2 SWAP1 DUP2 DUP2 MSTORE PUSH1 0x20 ADD DUP3 DUP1 SLOAD PUSH2 0x553 SWAP1 PUSH2 0x1BE7 JUMP JUMPDEST DUP1 ISZERO PUSH2 0x5A0 JUMPI DUP1 PUSH1 0x1F LT PUSH2 0x575 JUMPI PUSH2 0x100 DUP1 DUP4 SLOAD DIV MUL DUP4 MSTORE SWAP2 PUSH1 0x20 ADD SWAP2 PUSH2 0x5A0 JUMP JUMPDEST DUP3 ADD SWAP2 SWAP1 PUSH1 0x0 MSTORE PUSH1 0x20 PUSH1 0x0 KECCAK256 SWAP1 JUMPDEST DUP2 SLOAD DUP2 MSTORE SWAP1 PUSH1 0x1 ADD SWAP1 PUSH1 0x20 ADD DUP1 DUP4 GT PUSH2 0x583 JUMPI DUP3 SWAP1 SUB PUSH1 0x1F AND DUP3 ADD SWAP2 JUMPDEST POP POP POP POP POP SWAP8 POP SWAP11 POP SWAP11 POP SWAP11 POP SWAP11 POP SWAP11 POP SWAP11 POP SWAP11 POP SWAP11 POP SWAP11 POP SWAP11 POP POP PUSH2 0x5D6 JUMP JUMPDEST DUP1 DUP1 PUSH2 0x5CC SWAP1 PUSH2 0x1CF3 JUMP JUMPDEST SWAP2 POP POP PUSH2 0x19F JUMP JUMPDEST POP JUMPDEST SWAP2 SWAP4 SWAP6 SWAP8 SWAP10 POP SWAP2 SWAP4 SWAP6 SWAP8 SWAP10 JUMP JUMPDEST PUSH1 0x0 PUSH1 0x1 DUP3 PUSH4 0xFFFFFFFF AND EQ ISZERO PUSH2 0x694 JUMPI PUSH1 0x0 PUSH1 0x4 DUP9 PUSH2 0x603 SWAP2 SWAP1 PUSH2 0x1D20 JUMP JUMPDEST SWAP1 POP PUSH1 0x0 PUSH1 0x3 DUP9 PUSH2 0x614 SWAP2 SWAP1 PUSH2 0x1D20 JUMP JUMPDEST SWAP1 POP PUSH1 0x0 PUSH1 0x3 DUP9 PUSH2 0x625 SWAP2 SWAP1 PUSH2 0x1D20 JUMP JUMPDEST SWAP1 POP PUSH1 0x0 PUSH1 0x3 DUP9 PUSH2 0x636 SWAP2 SWAP1 PUSH2 0x1D20 JUMP JUMPDEST SWAP1 POP PUSH1 0x0 PUSH1 0x2 DUP9 PUSH2 0x647 SWAP2 SWAP1 PUSH2 0x1D20 JUMP JUMPDEST SWAP1 POP PUSH1 0x0 PUSH1 0xF DUP3 DUP5 DUP7 DUP9 DUP11 PUSH2 0x65C SWAP2 SWAP1 PUSH2 0x1D5E JUMP JUMPDEST PUSH2 0x666 SWAP2 SWAP1 PUSH2 0x1D5E JUMP JUMPDEST PUSH2 0x670 SWAP2 SWAP1 PUSH2 0x1D5E JUMP JUMPDEST PUSH2 0x67A SWAP2 SWAP1 PUSH2 0x1D5E JUMP JUMPDEST PUSH2 0x684 SWAP2 SWAP1 PUSH2 0x1DC7 JUMP JUMPDEST SWAP1 POP DUP1 SWAP7 POP POP POP POP POP POP POP PUSH2 0xA04 JUMP JUMPDEST PUSH1 0x2 DUP3 PUSH4 0xFFFFFFFF AND EQ ISZERO PUSH2 0x743 JUMPI PUSH1 0x0 PUSH1 0x4 DUP9 PUSH2 0x6B2 SWAP2 SWAP1 PUSH2 0x1D20 JUMP JUMPDEST SWAP1 POP PUSH1 0x0 PUSH1 0x4 DUP9 PUSH2 0x6C3 SWAP2 SWAP1 PUSH2 0x1D20 JUMP JUMPDEST SWAP1 POP PUSH1 0x0 PUSH1 0x3 DUP9 PUSH2 0x6D4 SWAP2 SWAP1 PUSH2 0x1D20 JUMP JUMPDEST SWAP1 POP PUSH1 0x0 PUSH1 0x3 DUP9 PUSH2 0x6E5 SWAP2 SWAP1 PUSH2 0x1D20 JUMP JUMPDEST SWAP1 POP PUSH1 0x0 PUSH1 0x2 DUP9 PUSH2 0x6F6 SWAP2 SWAP1 PUSH2 0x1D20 JUMP JUMPDEST SWAP1 POP PUSH1 0x0 PUSH1 0x10 DUP3 DUP5 DUP7 DUP9 DUP11 PUSH2 0x70B SWAP2 SWAP1 PUSH2 0x1D5E JUMP JUMPDEST PUSH2 0x715 SWAP2 SWAP1 PUSH2 0x1D5E JUMP JUMPDEST PUSH2 0x71F SWAP2 SWAP1 PUSH2 0x1D5E JUMP JUMPDEST PUSH2 0x729 SWAP2 SWAP1 PUSH2 0x1D5E JUMP JUMPDEST PUSH2 0x733 SWAP2 SWAP1 PUSH2 0x1DC7 JUMP JUMPDEST SWAP1 POP DUP1 SWAP7 POP POP POP POP POP POP POP PUSH2 0xA04 JUMP JUMPDEST PUSH1 0x3 DUP3 PUSH4 0xFFFFFFFF AND EQ ISZERO PUSH2 0x7F2 JUMPI PUSH1 0x0 PUSH1 0x4 DUP9 PUSH2 0x761 SWAP2 SWAP1 PUSH2 0x1D20 JUMP JUMPDEST SWAP1 POP PUSH1 0x0 PUSH1 0x4 DUP9 PUSH2 0x772 SWAP2 SWAP1 PUSH2 0x1D20 JUMP JUMPDEST SWAP1 POP PUSH1 0x0 PUSH1 0x3 DUP9 PUSH2 0x783 SWAP2 SWAP1 PUSH2 0x1D20 JUMP JUMPDEST SWAP1 POP PUSH1 0x0 PUSH1 0x3 DUP9 PUSH2 0x794 SWAP2 SWAP1 PUSH2 0x1D20 JUMP JUMPDEST SWAP1 POP PUSH1 0x0 PUSH1 0x3 DUP9 PUSH2 0x7A5 SWAP2 SWAP1 PUSH2 0x1D20 JUMP JUMPDEST SWAP1 POP PUSH1 0x0 PUSH1 0x11 DUP3 DUP5 DUP7 DUP9 DUP11 PUSH2 0x7BA SWAP2 SWAP1 PUSH2 0x1D5E JUMP JUMPDEST PUSH2 0x7C4 SWAP2 SWAP1 PUSH2 0x1D5E JUMP JUMPDEST PUSH2 0x7CE SWAP2 SWAP1 PUSH2 0x1D5E JUMP JUMPDEST PUSH2 0x7D8 SWAP2 SWAP1 PUSH2 0x1D5E JUMP JUMPDEST PUSH2 0x7E2 SWAP2 SWAP1 PUSH2 0x1DC7 JUMP JUMPDEST SWAP1 POP DUP1 SWAP7 POP POP POP POP POP POP POP PUSH2 0xA04 JUMP JUMPDEST PUSH1 0x4 DUP3 PUSH4 0xFFFFFFFF AND EQ ISZERO PUSH2 0x8A1 JUMPI PUSH1 0x0 PUSH1 0x4 DUP9 PUSH2 0x810 SWAP2 SWAP1 PUSH2 0x1D20 JUMP JUMPDEST SWAP1 POP PUSH1 0x0 PUSH1 0x4 DUP9 PUSH2 0x821 SWAP2 SWAP1 PUSH2 0x1D20 JUMP JUMPDEST SWAP1 POP PUSH1 0x0 PUSH1 0x4 DUP9 PUSH2 0x832 SWAP2 SWAP1 PUSH2 0x1D20 JUMP JUMPDEST SWAP1 POP PUSH1 0x0 PUSH1 0x3 DUP9 PUSH2 0x843 SWAP2 SWAP1 PUSH2 0x1D20 JUMP JUMPDEST SWAP1 POP PUSH1 0x0 PUSH1 0x3 DUP9 PUSH2 0x854 SWAP2 SWAP1 PUSH2 0x1D20 JUMP JUMPDEST SWAP1 POP PUSH1 0x0 PUSH1 0x12 DUP3 DUP5 DUP7 DUP9 DUP11 PUSH2 0x869 SWAP2 SWAP1 PUSH2 0x1D5E JUMP JUMPDEST PUSH2 0x873 SWAP2 SWAP1 PUSH2 0x1D5E JUMP JUMPDEST PUSH2 0x87D SWAP2 SWAP1 PUSH2 0x1D5E JUMP JUMPDEST PUSH2 0x887 SWAP2 SWAP1 PUSH2 0x1D5E JUMP JUMPDEST PUSH2 0x891 SWAP2 SWAP1 PUSH2 0x1DC7 JUMP JUMPDEST SWAP1 POP DUP1 SWAP7 POP POP POP POP POP POP POP PUSH2 0xA04 JUMP JUMPDEST PUSH1 0x5 DUP3 PUSH4 0xFFFFFFFF AND EQ ISZERO PUSH2 0x950 JUMPI PUSH1 0x0 PUSH1 0x4 DUP9 PUSH2 0x8BF SWAP2 SWAP1 PUSH2 0x1D20 JUMP JUMPDEST SWAP1 POP PUSH1 0x0 PUSH1 0x4 DUP9 PUSH2 0x8D0 SWAP2 SWAP1 PUSH2 0x1D20 JUMP JUMPDEST SWAP1 POP PUSH1 0x0 PUSH1 0x4 DUP9 PUSH2 0x8E1 SWAP2 SWAP1 PUSH2 0x1D20 JUMP JUMPDEST SWAP1 POP PUSH1 0x0 PUSH1 0x4 DUP9 PUSH2 0x8F2 SWAP2 SWAP1 PUSH2 0x1D20 JUMP JUMPDEST SWAP1 POP PUSH1 0x0 PUSH1 0x3 DUP9 PUSH2 0x903 SWAP2 SWAP1 PUSH2 0x1D20 JUMP JUMPDEST SWAP1 POP PUSH1 0x0 PUSH1 0x13 DUP3 DUP5 DUP7 DUP9 DUP11 PUSH2 0x918 SWAP2 SWAP1 PUSH2 0x1D5E JUMP JUMPDEST PUSH2 0x922 SWAP2 SWAP1 PUSH2 0x1D5E JUMP JUMPDEST PUSH2 0x92C SWAP2 SWAP1 PUSH2 0x1D5E JUMP JUMPDEST PUSH2 0x936 SWAP2 SWAP1 PUSH2 0x1D5E JUMP JUMPDEST PUSH2 0x940 SWAP2 SWAP1 PUSH2 0x1DC7 JUMP JUMPDEST SWAP1 POP DUP1 SWAP7 POP POP POP POP POP POP POP PUSH2 0xA04 JUMP JUMPDEST PUSH1 0x6 DUP3 PUSH4 0xFFFFFFFF AND EQ ISZERO PUSH2 0x9FF JUMPI PUSH1 0x0 PUSH1 0x4 DUP9 PUSH2 0x96E SWAP2 SWAP1 PUSH2 0x1D20 JUMP JUMPDEST SWAP1 POP PUSH1 0x0 PUSH1 0x4 DUP9 PUSH2 0x97F SWAP2 SWAP1 PUSH2 0x1D20 JUMP JUMPDEST SWAP1 POP PUSH1 0x0 PUSH1 0x4 DUP9 PUSH2 0x990 SWAP2 SWAP1 PUSH2 0x1D20 JUMP JUMPDEST SWAP1 POP PUSH1 0x0 PUSH1 0x4 DUP9 PUSH2 0x9A1 SWAP2 SWAP1 PUSH2 0x1D20 JUMP JUMPDEST SWAP1 POP PUSH1 0x0 PUSH1 0x4 DUP9 PUSH2 0x9B2 SWAP2 SWAP1 PUSH2 0x1D20 JUMP JUMPDEST SWAP1 POP PUSH1 0x0 PUSH1 0x14 DUP3 DUP5 DUP7 DUP9 DUP11 PUSH2 0x9C7 SWAP2 SWAP1 PUSH2 0x1D5E JUMP JUMPDEST PUSH2 0x9D1 SWAP2 SWAP1 PUSH2 0x1D5E JUMP JUMPDEST PUSH2 0x9DB SWAP2 SWAP1 PUSH2 0x1D5E JUMP JUMPDEST PUSH2 0x9E5 SWAP2 SWAP1 PUSH2 0x1D5E JUMP JUMPDEST PUSH2 0x9EF SWAP2 SWAP1 PUSH2 0x1DC7 JUMP JUMPDEST SWAP1 POP DUP1 SWAP7 POP POP POP POP POP POP POP PUSH2 0xA04 JUMP JUMPDEST PUSH1 0x65 SWAP1 POP JUMPDEST SWAP7 SWAP6 POP POP POP POP POP POP JUMP JUMPDEST PUSH1 0x60 PUSH1 0x0 DUP1 PUSH1 0x0 SWAP1 SLOAD SWAP1 PUSH2 0x100 EXP SWAP1 DIV PUSH4 0xFFFFFFFF AND PUSH4 0xFFFFFFFF AND PUSH8 0xFFFFFFFFFFFFFFFF DUP2 GT ISZERO PUSH2 0xA43 JUMPI PUSH2 0xA42 PUSH2 0x148F JUMP JUMPDEST JUMPDEST PUSH1 0x40 MLOAD SWAP1 DUP1 DUP3 MSTORE DUP1 PUSH1 0x20 MUL PUSH1 0x20 ADD DUP3 ADD PUSH1 0x40 MSTORE DUP1 ISZERO PUSH2 0xA7C JUMPI DUP2 PUSH1 0x20 ADD JUMPDEST PUSH2 0xA69 PUSH2 0x1306 JUMP JUMPDEST DUP2 MSTORE PUSH1 0x20 ADD SWAP1 PUSH1 0x1 SWAP1 SUB SWAP1 DUP2 PUSH2 0xA61 JUMPI SWAP1 POP JUMPDEST POP SWAP1 POP PUSH1 0x0 JUMPDEST PUSH1 0x0 DUP1 SLOAD SWAP1 PUSH2 0x100 EXP SWAP1 DIV PUSH4 0xFFFFFFFF AND PUSH4 0xFFFFFFFF AND DUP2 PUSH4 0xFFFFFFFF AND LT ISZERO PUSH2 0xDCE JUMPI PUSH1 0x0 PUSH1 0x1 PUSH1 0x0 DUP4 PUSH4 0xFFFFFFFF AND PUSH4 0xFFFFFFFF AND DUP2 MSTORE PUSH1 0x20 ADD SWAP1 DUP2 MSTORE PUSH1 0x20 ADD PUSH1 0x0 KECCAK256 SWAP1 POP DUP1 PUSH1 0x40 MLOAD DUP1 PUSH2 0x140 ADD PUSH1 0x40 MSTORE SWAP1 DUP2 PUSH1 0x0 DUP3 ADD DUP1 SLOAD PUSH2 0xAE6 SWAP1 PUSH2 0x1BE7 JUMP JUMPDEST DUP1 PUSH1 0x1F ADD PUSH1 0x20 DUP1 SWAP2 DIV MUL PUSH1 0x20 ADD PUSH1 0x40 MLOAD SWAP1 DUP2 ADD PUSH1 0x40 MSTORE DUP1 SWAP3 SWAP2 SWAP1 DUP2 DUP2 MSTORE PUSH1 0x20 ADD DUP3 DUP1 SLOAD PUSH2 0xB12 SWAP1 PUSH2 0x1BE7 JUMP JUMPDEST DUP1 ISZERO PUSH2 0xB5F JUMPI DUP1 PUSH1 0x1F LT PUSH2 0xB34 JUMPI PUSH2 0x100 DUP1 DUP4 SLOAD DIV MUL DUP4 MSTORE SWAP2 PUSH1 0x20 ADD SWAP2 PUSH2 0xB5F JUMP JUMPDEST DUP3 ADD SWAP2 SWAP1 PUSH1 0x0 MSTORE PUSH1 0x20 PUSH1 0x0 KECCAK256 SWAP1 JUMPDEST DUP2 SLOAD DUP2 MSTORE SWAP1 PUSH1 0x1 ADD SWAP1 PUSH1 0x20 ADD DUP1 DUP4 GT PUSH2 0xB42 JUMPI DUP3 SWAP1 SUB PUSH1 0x1F AND DUP3 ADD SWAP2 JUMPDEST POP POP POP POP POP DUP2 MSTORE PUSH1 0x20 ADD PUSH1 0x1 DUP3 ADD DUP1 SLOAD PUSH2 0xB78 SWAP1 PUSH2 0x1BE7 JUMP JUMPDEST DUP1 PUSH1 0x1F ADD PUSH1 0x20 DUP1 SWAP2 DIV MUL PUSH1 0x20 ADD PUSH1 0x40 MLOAD SWAP1 DUP2 ADD PUSH1 0x40 MSTORE DUP1 SWAP3 SWAP2 SWAP1 DUP2 DUP2 MSTORE PUSH1 0x20 ADD DUP3 DUP1 SLOAD PUSH2 0xBA4 SWAP1 PUSH2 0x1BE7 JUMP JUMPDEST DUP1 ISZERO PUSH2 0xBF1 JUMPI DUP1 PUSH1 0x1F LT PUSH2 0xBC6 JUMPI PUSH2 0x100 DUP1 DUP4 SLOAD DIV MUL DUP4 MSTORE SWAP2 PUSH1 0x20 ADD SWAP2 PUSH2 0xBF1 JUMP JUMPDEST DUP3 ADD SWAP2 SWAP1 PUSH1 0x0 MSTORE PUSH1 0x20 PUSH1 0x0 KECCAK256 SWAP1 JUMPDEST DUP2 SLOAD DUP2 MSTORE SWAP1 PUSH1 0x1 ADD SWAP1 PUSH1 0x20 ADD DUP1 DUP4 GT PUSH2 0xBD4 JUMPI DUP3 SWAP1 SUB PUSH1 0x1F AND DUP3 ADD SWAP2 JUMPDEST POP POP POP POP POP DUP2 MSTORE PUSH1 0x20 ADD PUSH1 0x2 DUP3 ADD DUP1 SLOAD PUSH2 0xC0A SWAP1 PUSH2 0x1BE7 JUMP JUMPDEST DUP1 PUSH1 0x1F ADD PUSH1 0x20 DUP1 SWAP2 DIV MUL PUSH1 0x20 ADD PUSH1 0x40 MLOAD SWAP1 DUP2 ADD PUSH1 0x40 MSTORE DUP1 SWAP3 SWAP2 SWAP1 DUP2 DUP2 MSTORE PUSH1 0x20 ADD DUP3 DUP1 SLOAD PUSH2 0xC36 SWAP1 PUSH2 0x1BE7 JUMP JUMPDEST DUP1 ISZERO PUSH2 0xC83 JUMPI DUP1 PUSH1 0x1F LT PUSH2 0xC58 JUMPI PUSH2 0x100 DUP1 DUP4 SLOAD DIV MUL DUP4 MSTORE SWAP2 PUSH1 0x20 ADD SWAP2 PUSH2 0xC83 JUMP JUMPDEST DUP3 ADD SWAP2 SWAP1 PUSH1 0x0 MSTORE PUSH1 0x20 PUSH1 0x0 KECCAK256 SWAP1 JUMPDEST DUP2 SLOAD DUP2 MSTORE SWAP1 PUSH1 0x1 ADD SWAP1 PUSH1 0x20 ADD DUP1 DUP4 GT PUSH2 0xC66 JUMPI DUP3 SWAP1 SUB PUSH1 0x1F AND DUP3 ADD SWAP2 JUMPDEST POP POP POP POP POP DUP2 MSTORE PUSH1 0x20 ADD PUSH1 0x3 DUP3 ADD PUSH1 0x0 SWAP1 SLOAD SWAP1 PUSH2 0x100 EXP SWAP1 DIV PUSH4 0xFFFFFFFF AND PUSH4 0xFFFFFFFF AND PUSH4 0xFFFFFFFF AND DUP2 MSTORE PUSH1 0x20 ADD PUSH1 0x3 DUP3 ADD PUSH1 0x4 SWAP1 SLOAD SWAP1 PUSH2 0x100 EXP SWAP1 DIV PUSH4 0xFFFFFFFF AND PUSH4 0xFFFFFFFF AND PUSH4 0xFFFFFFFF AND DUP2 MSTORE PUSH1 0x20 ADD PUSH1 0x3 DUP3 ADD PUSH1 0x8 SWAP1 SLOAD SWAP1 PUSH2 0x100 EXP SWAP1 DIV PUSH4 0xFFFFFFFF AND PUSH4 0xFFFFFFFF AND PUSH4 0xFFFFFFFF AND DUP2 MSTORE PUSH1 0x20 ADD PUSH1 0x3 DUP3 ADD PUSH1 0xC SWAP1 SLOAD SWAP1 PUSH2 0x100 EXP SWAP1 DIV PUSH4 0xFFFFFFFF AND PUSH4 0xFFFFFFFF AND PUSH4 0xFFFFFFFF AND DUP2 MSTORE PUSH1 0x20 ADD PUSH1 0x3 DUP3 ADD PUSH1 0x10 SWAP1 SLOAD SWAP1 PUSH2 0x100 EXP SWAP1 DIV PUSH4 0xFFFFFFFF AND PUSH4 0xFFFFFFFF AND PUSH4 0xFFFFFFFF AND DUP2 MSTORE PUSH1 0x20 ADD PUSH1 0x3 DUP3 ADD PUSH1 0x14 SWAP1 SLOAD SWAP1 PUSH2 0x100 EXP SWAP1 DIV PUSH4 0xFFFFFFFF AND PUSH4 0xFFFFFFFF AND PUSH4 0xFFFFFFFF AND DUP2 MSTORE PUSH1 0x20 ADD PUSH1 0x3 DUP3 ADD PUSH1 0x18 SWAP1 SLOAD SWAP1 PUSH2 0x100 EXP SWAP1 DIV PUSH4 0xFFFFFFFF AND PUSH4 0xFFFFFFFF AND PUSH4 0xFFFFFFFF AND DUP2 MSTORE POP POP DUP4 DUP4 PUSH4 0xFFFFFFFF AND DUP2 MLOAD DUP2 LT PUSH2 0xDAF JUMPI PUSH2 0xDAE PUSH2 0x1DF8 JUMP JUMPDEST JUMPDEST PUSH1 0x20 MUL PUSH1 0x20 ADD ADD DUP2 SWAP1 MSTORE POP POP DUP1 DUP1 PUSH2 0xDC6 SWAP1 PUSH2 0x1CF3 JUMP JUMPDEST SWAP2 POP POP PUSH2 0xA82 JUMP JUMPDEST POP DUP1 SWAP2 POP POP SWAP1 JUMP JUMPDEST PUSH1 0x1 PUSH1 0x20 MSTORE DUP1 PUSH1 0x0 MSTORE PUSH1 0x40 PUSH1 0x0 KECCAK256 PUSH1 0x0 SWAP2 POP SWAP1 POP DUP1 PUSH1 0x0 ADD DUP1 SLOAD PUSH2 0xDF9 SWAP1 PUSH2 0x1BE7 JUMP JUMPDEST DUP1 PUSH1 0x1F ADD PUSH1 0x20 DUP1 SWAP2 DIV MUL PUSH1 0x20 ADD PUSH1 0x40 MLOAD SWAP1 DUP2 ADD PUSH1 0x40 MSTORE DUP1 SWAP3 SWAP2 SWAP1 DUP2 DUP2 MSTORE PUSH1 0x20 ADD DUP3 DUP1 SLOAD PUSH2 0xE25 SWAP1 PUSH2 0x1BE7 JUMP JUMPDEST DUP1 ISZERO PUSH2 0xE72 JUMPI DUP1 PUSH1 0x1F LT PUSH2 0xE47 JUMPI PUSH2 0x100 DUP1 DUP4 SLOAD DIV MUL DUP4 MSTORE SWAP2 PUSH1 0x20 ADD SWAP2 PUSH2 0xE72 JUMP JUMPDEST DUP3 ADD SWAP2 SWAP1 PUSH1 0x0 MSTORE PUSH1 0x20 PUSH1 0x0 KECCAK256 SWAP1 JUMPDEST DUP2 SLOAD DUP2 MSTORE SWAP1 PUSH1 0x1 ADD SWAP1 PUSH1 0x20 ADD DUP1 DUP4 GT PUSH2 0xE55 JUMPI DUP3 SWAP1 SUB PUSH1 0x1F AND DUP3 ADD SWAP2 JUMPDEST POP POP POP POP POP SWAP1 DUP1 PUSH1 0x1 ADD DUP1 SLOAD PUSH2 0xE87 SWAP1 PUSH2 0x1BE7 JUMP JUMPDEST DUP1 PUSH1 0x1F ADD PUSH1 0x20 DUP1 SWAP2 DIV MUL PUSH1 0x20 ADD PUSH1 0x40 MLOAD SWAP1 DUP2 ADD PUSH1 0x40 MSTORE DUP1 SWAP3 SWAP2 SWAP1 DUP2 DUP2 MSTORE PUSH1 0x20 ADD DUP3 DUP1 SLOAD PUSH2 0xEB3 SWAP1 PUSH2 0x1BE7 JUMP JUMPDEST DUP1 ISZERO PUSH2 0xF00 JUMPI DUP1 PUSH1 0x1F LT PUSH2 0xED5 JUMPI PUSH2 0x100 DUP1 DUP4 SLOAD DIV MUL DUP4 MSTORE SWAP2 PUSH1 0x20 ADD SWAP2 PUSH2 0xF00 JUMP JUMPDEST DUP3 ADD SWAP2 SWAP1 PUSH1 0x0 MSTORE PUSH1 0x20 PUSH1 0x0 KECCAK256 SWAP1 JUMPDEST DUP2 SLOAD DUP2 MSTORE SWAP1 PUSH1 0x1 ADD SWAP1 PUSH1 0x20 ADD DUP1 DUP4 GT PUSH2 0xEE3 JUMPI DUP3 SWAP1 SUB PUSH1 0x1F AND DUP3 ADD SWAP2 JUMPDEST POP POP POP POP POP SWAP1 DUP1 PUSH1 0x2 ADD DUP1 SLOAD PUSH2 0xF15 SWAP1 PUSH2 0x1BE7 JUMP JUMPDEST DUP1 PUSH1 0x1F ADD PUSH1 0x20 DUP1 SWAP2 DIV MUL PUSH1 0x20 ADD PUSH1 0x40 MLOAD SWAP1 DUP2 ADD PUSH1 0x40 MSTORE DUP1 SWAP3 SWAP2 SWAP1 DUP2 DUP2 MSTORE PUSH1 0x20 ADD DUP3 DUP1 SLOAD PUSH2 0xF41 SWAP1 PUSH2 0x1BE7 JUMP JUMPDEST DUP1 ISZERO PUSH2 0xF8E JUMPI DUP1 PUSH1 0x1F LT PUSH2 0xF63 JUMPI PUSH2 0x100 DUP1 DUP4 SLOAD DIV MUL DUP4 MSTORE SWAP2 PUSH1 0x20 ADD SWAP2 PUSH2 0xF8E JUMP JUMPDEST DUP3 ADD SWAP2 SWAP1 PUSH1 0x0 MSTORE PUSH1 0x20 PUSH1 0x0 KECCAK256 SWAP1 JUMPDEST DUP2 SLOAD DUP2 MSTORE SWAP1 PUSH1 0x1 ADD SWAP1 PUSH1 0x20 ADD DUP1 DUP4 GT PUSH2 0xF71 JUMPI DUP3 SWAP1 SUB PUSH1 0x1F AND DUP3 ADD SWAP2 JUMPDEST POP POP POP POP POP SWAP1 DUP1 PUSH1 0x3 ADD PUSH1 0x0 SWAP1 SLOAD SWAP1 PUSH2 0x100 EXP SWAP1 DIV PUSH4 0xFFFFFFFF AND SWAP1 DUP1 PUSH1 0x3 ADD PUSH1 0x4 SWAP1 SLOAD SWAP1 PUSH2 0x100 EXP SWAP1 DIV PUSH4 0xFFFFFFFF AND SWAP1 DUP1 PUSH1 0x3 ADD PUSH1 0x8 SWAP1 SLOAD SWAP1 PUSH2 0x100 EXP SWAP1 DIV PUSH4 0xFFFFFFFF AND SWAP1 DUP1 PUSH1 0x3 ADD PUSH1 0xC SWAP1 SLOAD SWAP1 PUSH2 0x100 EXP SWAP1 DIV PUSH4 0xFFFFFFFF AND SWAP1 DUP1 PUSH1 0x3 ADD PUSH1 0x10 SWAP1 SLOAD SWAP1 PUSH2 0x100 EXP SWAP1 DIV PUSH4 0xFFFFFFFF AND SWAP1 DUP1 PUSH1 0x3 ADD PUSH1 0x14 SWAP1 SLOAD SWAP1 PUSH2 0x100 EXP SWAP1 DIV PUSH4 0xFFFFFFFF AND SWAP1 DUP1 PUSH1 0x3 ADD PUSH1 0x18 SWAP1 SLOAD SWAP1 PUSH2 0x100 EXP SWAP1 DIV PUSH4 0xFFFFFFFF AND SWAP1 POP DUP11 JUMP JUMPDEST PUSH1 0x0 DUP1 PUSH1 0x0 DUP1 DUP2 DUP2 SWAP1 SLOAD SWAP1 PUSH2 0x100 EXP SWAP1 DIV PUSH4 0xFFFFFFFF AND DUP1 SWAP3 SWAP2 SWAP1 PUSH2 0x1056 SWAP1 PUSH2 0x1CF3 JUMP JUMPDEST SWAP2 SWAP1 PUSH2 0x100 EXP DUP2 SLOAD DUP2 PUSH4 0xFFFFFFFF MUL NOT AND SWAP1 DUP4 PUSH4 0xFFFFFFFF AND MUL OR SWAP1 SSTORE POP SWAP1 POP DUP11 PUSH1 0x1 PUSH1 0x0 DUP4 PUSH4 0xFFFFFFFF AND PUSH4 0xFFFFFFFF AND DUP2 MSTORE PUSH1 0x20 ADD SWAP1 DUP2 MSTORE PUSH1 0x20 ADD PUSH1 0x0 KECCAK256 PUSH1 0x0 ADD SWAP1 DUP1 MLOAD SWAP1 PUSH1 0x20 ADD SWAP1 PUSH2 0x10AC SWAP3 SWAP2 SWAP1 PUSH2 0x1383 JUMP JUMPDEST POP DUP10 PUSH1 0x1 PUSH1 0x0 DUP4 PUSH4 0xFFFFFFFF AND PUSH4 0xFFFFFFFF AND DUP2 MSTORE PUSH1 0x20 ADD SWAP1 DUP2 MSTORE PUSH1 0x20 ADD PUSH1 0x0 KECCAK256 PUSH1 0x1 ADD SWAP1 DUP1 MLOAD SWAP1 PUSH1 0x20 ADD SWAP1 PUSH2 0x10E3 SWAP3 SWAP2 SWAP1 PUSH2 0x1383 JUMP JUMPDEST POP DUP9 PUSH1 0x1 PUSH1 0x0 DUP4 PUSH4 0xFFFFFFFF AND PUSH4 0xFFFFFFFF AND DUP2 MSTORE PUSH1 0x20 ADD SWAP1 DUP2 MSTORE PUSH1 0x20 ADD PUSH1 0x0 KECCAK256 PUSH1 0x2 ADD SWAP1 DUP1 MLOAD SWAP1 PUSH1 0x20 ADD SWAP1 PUSH2 0x111A SWAP3 SWAP2 SWAP1 PUSH2 0x1383 JUMP JUMPDEST POP DUP8 PUSH1 0x1 PUSH1 0x0 DUP4 PUSH4 0xFFFFFFFF AND PUSH4 0xFFFFFFFF AND DUP2 MSTORE PUSH1 0x20 ADD SWAP1 DUP2 MSTORE PUSH1 0x20 ADD PUSH1 0x0 KECCAK256 PUSH1 0x3 ADD PUSH1 0x0 PUSH2 0x100 EXP DUP2 SLOAD DUP2 PUSH4 0xFFFFFFFF MUL NOT AND SWAP1 DUP4 PUSH4 0xFFFFFFFF AND MUL OR SWAP1 SSTORE POP DUP7 PUSH1 0x1 PUSH1 0x0 DUP4 PUSH4 0xFFFFFFFF AND PUSH4 0xFFFFFFFF AND DUP2 MSTORE PUSH1 0x20 ADD SWAP1 DUP2 MSTORE PUSH1 0x20 ADD PUSH1 0x0 KECCAK256 PUSH1 0x3 ADD PUSH1 0x4 PUSH2 0x100 EXP DUP2 SLOAD DUP2 PUSH4 0xFFFFFFFF MUL NOT AND SWAP1 DUP4 PUSH4 0xFFFFFFFF AND MUL OR SWAP1 SSTORE POP DUP6 PUSH1 0x1 PUSH1 0x0 DUP4 PUSH4 0xFFFFFFFF AND PUSH4 0xFFFFFFFF AND DUP2 MSTORE PUSH1 0x20 ADD SWAP1 DUP2 MSTORE PUSH1 0x20 ADD PUSH1 0x0 KECCAK256 PUSH1 0x3 ADD PUSH1 0x8 PUSH2 0x100 EXP DUP2 SLOAD DUP2 PUSH4 0xFFFFFFFF MUL NOT AND SWAP1 DUP4 PUSH4 0xFFFFFFFF AND MUL OR SWAP1 SSTORE POP DUP5 PUSH1 0x1 PUSH1 0x0 DUP4 PUSH4 0xFFFFFFFF AND PUSH4 0xFFFFFFFF AND DUP2 MSTORE PUSH1 0x20 ADD SWAP1 DUP2 MSTORE PUSH1 0x20 ADD PUSH1 0x0 KECCAK256 PUSH1 0x3 ADD PUSH1 0xC PUSH2 0x100 EXP DUP2 SLOAD DUP2 PUSH4 0xFFFFFFFF MUL NOT AND SWAP1 DUP4 PUSH4 0xFFFFFFFF AND MUL OR SWAP1 SSTORE POP DUP4 PUSH1 0x1 PUSH1 0x0 DUP4 PUSH4 0xFFFFFFFF AND PUSH4 0xFFFFFFFF AND DUP2 MSTORE PUSH1 0x20 ADD SWAP1 DUP2 MSTORE PUSH1 0x20 ADD PUSH1 0x0 KECCAK256 PUSH1 0x3 ADD PUSH1 0x10 PUSH2 0x100 EXP DUP2 SLOAD DUP2 PUSH4 0xFFFFFFFF MUL NOT AND SWAP1 DUP4 PUSH4 0xFFFFFFFF AND MUL OR SWAP1 SSTORE POP DUP3 PUSH1 0x1 PUSH1 0x0 DUP4 PUSH4 0xFFFFFFFF AND PUSH4 0xFFFFFFFF AND DUP2 MSTORE PUSH1 0x20 ADD SWAP1 DUP2 MSTORE PUSH1 0x20 ADD PUSH1 0x0 KECCAK256 PUSH1 0x3 ADD PUSH1 0x14 PUSH2 0x100 EXP DUP2 SLOAD DUP2 PUSH4 0xFFFFFFFF MUL NOT AND SWAP1 DUP4 PUSH4 0xFFFFFFFF AND MUL OR SWAP1 SSTORE POP PUSH1 0x0 PUSH2 0x12B1 DUP9 DUP9 DUP9 DUP9 DUP9 DUP15 PUSH2 0x5E3 JUMP JUMPDEST SWAP1 POP DUP1 PUSH1 0x1 PUSH1 0x0 DUP5 PUSH4 0xFFFFFFFF AND PUSH4 0xFFFFFFFF AND DUP2 MSTORE PUSH1 0x20 ADD SWAP1 DUP2 MSTORE PUSH1 0x20 ADD PUSH1 0x0 KECCAK256 PUSH1 0x3 ADD PUSH1 0x18 PUSH2 0x100 EXP DUP2 SLOAD DUP2 PUSH4 0xFFFFFFFF MUL NOT AND SWAP1 DUP4 PUSH4 0xFFFFFFFF AND MUL OR SWAP1 SSTORE POP DUP2 SWAP3 POP POP POP SWAP10 SWAP9 POP POP POP POP POP POP POP POP POP JUMP JUMPDEST PUSH1 0x40 MLOAD DUP1 PUSH2 0x140 ADD PUSH1 0x40 MSTORE DUP1 PUSH1 0x60 DUP2 MSTORE PUSH1 0x20 ADD PUSH1 0x60 DUP2 MSTORE PUSH1 0x20 ADD PUSH1 0x60 DUP2 MSTORE PUSH1 0x20 ADD PUSH1 0x0 PUSH4 0xFFFFFFFF AND DUP2 MSTORE PUSH1 0x20 ADD PUSH1 0x0 PUSH4 0xFFFFFFFF AND DUP2 MSTORE PUSH1 0x20 ADD PUSH1 0x0 PUSH4 0xFFFFFFFF AND DUP2 MSTORE PUSH1 0x20 ADD PUSH1 0x0 PUSH4 0xFFFFFFFF AND DUP2 MSTORE PUSH1 0x20 ADD PUSH1 0x0 PUSH4 0xFFFFFFFF AND DUP2 MSTORE PUSH1 0x20 ADD PUSH1 0x0 PUSH4 0xFFFFFFFF AND DUP2 MSTORE PUSH1 0x20 ADD PUSH1 0x0 PUSH4 0xFFFFFFFF AND DUP2 MSTORE POP SWAP1 JUMP JUMPDEST DUP3 DUP1 SLOAD PUSH2 0x138F SWAP1 PUSH2 0x1BE7 JUMP JUMPDEST SWAP1 PUSH1 0x0 MSTORE PUSH1 0x20 PUSH1 0x0 KECCAK256 SWAP1 PUSH1 0x1F ADD PUSH1 0x20 SWAP1 DIV DUP2 ADD SWAP3 DUP3 PUSH2 0x13B1 JUMPI PUSH1 0x0 DUP6 SSTORE PUSH2 0x13F8 JUMP JUMPDEST DUP3 PUSH1 0x1F LT PUSH2 0x13CA JUMPI DUP1 MLOAD PUSH1 0xFF NOT AND DUP4 DUP1 ADD OR DUP6 SSTORE PUSH2 0x13F8 JUMP JUMPDEST DUP3 DUP1 ADD PUSH1 0x1 ADD DUP6 SSTORE DUP3 ISZERO PUSH2 0x13F8 JUMPI SWAP2 DUP3 ADD JUMPDEST DUP3 DUP2 GT ISZERO PUSH2 0x13F7 JUMPI DUP3 MLOAD DUP3 SSTORE SWAP2 PUSH1 0x20 ADD SWAP2 SWAP1 PUSH1 0x1 ADD SWAP1 PUSH2 0x13DC JUMP JUMPDEST JUMPDEST POP SWAP1 POP PUSH2 0x1405 SWAP2 SWAP1 PUSH2 0x1409 JUMP JUMPDEST POP SWAP1 JUMP JUMPDEST JUMPDEST DUP1 DUP3 GT ISZERO PUSH2 0x1422 JUMPI PUSH1 0x0 DUP2 PUSH1 0x0 SWAP1 SSTORE POP PUSH1 0x1 ADD PUSH2 0x140A JUMP JUMPDEST POP SWAP1 JUMP JUMPDEST PUSH1 0x0 PUSH4 0xFFFFFFFF DUP3 AND SWAP1 POP SWAP2 SWAP1 POP JUMP JUMPDEST PUSH2 0x143F DUP2 PUSH2 0x1426 JUMP JUMPDEST DUP3 MSTORE POP POP JUMP JUMPDEST PUSH1 0x0 PUSH1 0x20 DUP3 ADD SWAP1 POP PUSH2 0x145A PUSH1 0x0 DUP4 ADD DUP5 PUSH2 0x1436 JUMP JUMPDEST SWAP3 SWAP2 POP POP JUMP JUMPDEST PUSH1 0x0 PUSH1 0x40 MLOAD SWAP1 POP SWAP1 JUMP JUMPDEST PUSH1 0x0 DUP1 REVERT JUMPDEST PUSH1 0x0 DUP1 REVERT JUMPDEST PUSH1 0x0 DUP1 REVERT JUMPDEST PUSH1 0x0 DUP1 REVERT JUMPDEST PUSH1 0x0 PUSH1 0x1F NOT PUSH1 0x1F DUP4 ADD AND SWAP1 POP SWAP2 SWAP1 POP JUMP JUMPDEST PUSH32 0x4E487B7100000000000000000000000000000000000000000000000000000000 PUSH1 0x0 MSTORE PUSH1 0x41 PUSH1 0x4 MSTORE PUSH1 0x24 PUSH1 0x0 REVERT JUMPDEST PUSH2 0x14C7 DUP3 PUSH2 0x147E JUMP JUMPDEST DUP2 ADD DUP2 DUP2 LT PUSH8 0xFFFFFFFFFFFFFFFF DUP3 GT OR ISZERO PUSH2 0x14E6 JUMPI PUSH2 0x14E5 PUSH2 0x148F JUMP JUMPDEST JUMPDEST DUP1 PUSH1 0x40 MSTORE POP POP POP JUMP JUMPDEST PUSH1 0x0 PUSH2 0x14F9 PUSH2 0x1460 JUMP JUMPDEST SWAP1 POP PUSH2 0x1505 DUP3 DUP3 PUSH2 0x14BE JUMP JUMPDEST SWAP2 SWAP1 POP JUMP JUMPDEST PUSH1 0x0 PUSH8 0xFFFFFFFFFFFFFFFF DUP3 GT ISZERO PUSH2 0x1525 JUMPI PUSH2 0x1524 PUSH2 0x148F JUMP JUMPDEST JUMPDEST PUSH2 0x152E DUP3 PUSH2 0x147E JUMP JUMPDEST SWAP1 POP PUSH1 0x20 DUP2 ADD SWAP1 POP SWAP2 SWAP1 POP JUMP JUMPDEST DUP3 DUP2 DUP4 CALLDATACOPY PUSH1 0x0 DUP4 DUP4 ADD MSTORE POP POP POP JUMP JUMPDEST PUSH1 0x0 PUSH2 0x155D PUSH2 0x1558 DUP5 PUSH2 0x150A JUMP JUMPDEST PUSH2 0x14EF JUMP JUMPDEST SWAP1 POP DUP3 DUP2 MSTORE PUSH1 0x20 DUP2 ADD DUP5 DUP5 DUP5 ADD GT ISZERO PUSH2 0x1579 JUMPI PUSH2 0x1578 PUSH2 0x1479 JUMP JUMPDEST JUMPDEST PUSH2 0x1584 DUP5 DUP3 DUP6 PUSH2 0x153B JUMP JUMPDEST POP SWAP4 SWAP3 POP POP POP JUMP JUMPDEST PUSH1 0x0 DUP3 PUSH1 0x1F DUP4 ADD SLT PUSH2 0x15A1 JUMPI PUSH2 0x15A0 PUSH2 0x1474 JUMP JUMPDEST JUMPDEST DUP2 CALLDATALOAD PUSH2 0x15B1 DUP5 DUP3 PUSH1 0x20 DUP7 ADD PUSH2 0x154A JUMP JUMPDEST SWAP2 POP POP SWAP3 SWAP2 POP POP JUMP JUMPDEST PUSH1 0x0 PUSH1 0x20 DUP3 DUP5 SUB SLT ISZERO PUSH2 0x15D0 JUMPI PUSH2 0x15CF PUSH2 0x146A JUMP JUMPDEST JUMPDEST PUSH1 0x0 DUP3 ADD CALLDATALOAD PUSH8 0xFFFFFFFFFFFFFFFF DUP2 GT ISZERO PUSH2 0x15EE JUMPI PUSH2 0x15ED PUSH2 0x146F JUMP JUMPDEST JUMPDEST PUSH2 0x15FA DUP5 DUP3 DUP6 ADD PUSH2 0x158C JUMP JUMPDEST SWAP2 POP POP SWAP3 SWAP2 POP POP JUMP JUMPDEST PUSH1 0x0 DUP2 MLOAD SWAP1 POP SWAP2 SWAP1 POP JUMP JUMPDEST PUSH1 0x0 DUP3 DUP3 MSTORE PUSH1 0x20 DUP3 ADD SWAP1 POP SWAP3 SWAP2 POP POP JUMP JUMPDEST PUSH1 0x0 JUMPDEST DUP4 DUP2 LT ISZERO PUSH2 0x163D JUMPI DUP1 DUP3 ADD MLOAD DUP2 DUP5 ADD MSTORE PUSH1 0x20 DUP2 ADD SWAP1 POP PUSH2 0x1622 JUMP JUMPDEST DUP4 DUP2 GT ISZERO PUSH2 0x164C JUMPI PUSH1 0x0 DUP5 DUP5 ADD MSTORE JUMPDEST POP POP POP POP JUMP JUMPDEST PUSH1 0x0 PUSH2 0x165D DUP3 PUSH2 0x1603 JUMP JUMPDEST PUSH2 0x1667 DUP2 DUP6 PUSH2 0x160E JUMP JUMPDEST SWAP4 POP PUSH2 0x1677 DUP2 DUP6 PUSH1 0x20 DUP7 ADD PUSH2 0x161F JUMP JUMPDEST PUSH2 0x1680 DUP2 PUSH2 0x147E JUMP JUMPDEST DUP5 ADD SWAP2 POP POP SWAP3 SWAP2 POP POP JUMP JUMPDEST PUSH1 0x0 PUSH2 0x140 DUP3 ADD SWAP1 POP DUP2 DUP2 SUB PUSH1 0x0 DUP4 ADD MSTORE PUSH2 0x16A6 DUP2 DUP14 PUSH2 0x1652 JUMP JUMPDEST SWAP1 POP DUP2 DUP2 SUB PUSH1 0x20 DUP4 ADD MSTORE PUSH2 0x16BA DUP2 DUP13 PUSH2 0x1652 JUMP JUMPDEST SWAP1 POP DUP2 DUP2 SUB PUSH1 0x40 DUP4 ADD MSTORE PUSH2 0x16CE DUP2 DUP12 PUSH2 0x1652 JUMP JUMPDEST SWAP1 POP PUSH2 0x16DD PUSH1 0x60 DUP4 ADD DUP11 PUSH2 0x1436 JUMP JUMPDEST PUSH2 0x16EA PUSH1 0x80 DUP4 ADD DUP10 PUSH2 0x1436 JUMP JUMPDEST PUSH2 0x16F7 PUSH1 0xA0 DUP4 ADD DUP9 PUSH2 0x1436 JUMP JUMPDEST PUSH2 0x1704 PUSH1 0xC0 DUP4 ADD DUP8 PUSH2 0x1436 JUMP JUMPDEST PUSH2 0x1711 PUSH1 0xE0 DUP4 ADD DUP7 PUSH2 0x1436 JUMP JUMPDEST PUSH2 0x171F PUSH2 0x100 DUP4 ADD DUP6 PUSH2 0x1436 JUMP JUMPDEST PUSH2 0x172D PUSH2 0x120 DUP4 ADD DUP5 PUSH2 0x1436 JUMP JUMPDEST SWAP12 SWAP11 POP POP POP POP POP POP POP POP POP POP POP JUMP JUMPDEST PUSH2 0x1745 DUP2 PUSH2 0x1426 JUMP JUMPDEST DUP2 EQ PUSH2 0x1750 JUMPI PUSH1 0x0 DUP1 REVERT JUMPDEST POP JUMP JUMPDEST PUSH1 0x0 DUP2 CALLDATALOAD SWAP1 POP PUSH2 0x1762 DUP2 PUSH2 0x173C JUMP JUMPDEST SWAP3 SWAP2 POP POP JUMP JUMPDEST PUSH1 0x0 DUP1 PUSH1 0x0 DUP1 PUSH1 0x0 DUP1 PUSH1 0xC0 DUP8 DUP10 SUB SLT ISZERO PUSH2 0x1785 JUMPI PUSH2 0x1784 PUSH2 0x146A JUMP JUMPDEST JUMPDEST PUSH1 0x0 PUSH2 0x1793 DUP10 DUP3 DUP11 ADD PUSH2 0x1753 JUMP JUMPDEST SWAP7 POP POP PUSH1 0x20 PUSH2 0x17A4 DUP10 DUP3 DUP11 ADD PUSH2 0x1753 JUMP JUMPDEST SWAP6 POP POP PUSH1 0x40 PUSH2 0x17B5 DUP10 DUP3 DUP11 ADD PUSH2 0x1753 JUMP JUMPDEST SWAP5 POP POP PUSH1 0x60 PUSH2 0x17C6 DUP10 DUP3 DUP11 ADD PUSH2 0x1753 JUMP JUMPDEST SWAP4 POP POP PUSH1 0x80 PUSH2 0x17D7 DUP10 DUP3 DUP11 ADD PUSH2 0x1753 JUMP JUMPDEST SWAP3 POP POP PUSH1 0xA0 PUSH2 0x17E8 DUP10 DUP3 DUP11 ADD PUSH2 0x1753 JUMP JUMPDEST SWAP2 POP POP SWAP3 SWAP6 POP SWAP3 SWAP6 POP SWAP3 SWAP6 JUMP JUMPDEST PUSH1 0x0 DUP2 MLOAD SWAP1 POP SWAP2 SWAP1 POP JUMP JUMPDEST PUSH1 0x0 DUP3 DUP3 MSTORE PUSH1 0x20 DUP3 ADD SWAP1 POP SWAP3 SWAP2 POP POP JUMP JUMPDEST PUSH1 0x0 DUP2 SWAP1 POP PUSH1 0x20 DUP3 ADD SWAP1 POP SWAP2 SWAP1 POP JUMP JUMPDEST PUSH1 0x0 DUP3 DUP3 MSTORE PUSH1 0x20 DUP3 ADD SWAP1 POP SWAP3 SWAP2 POP POP JUMP JUMPDEST PUSH1 0x0 PUSH2 0x183D DUP3 PUSH2 0x1603 JUMP JUMPDEST PUSH2 0x1847 DUP2 DUP6 PUSH2 0x1821 JUMP JUMPDEST SWAP4 POP PUSH2 0x1857 DUP2 DUP6 PUSH1 0x20 DUP7 ADD PUSH2 0x161F JUMP JUMPDEST PUSH2 0x1860 DUP2 PUSH2 0x147E JUMP JUMPDEST DUP5 ADD SWAP2 POP POP SWAP3 SWAP2 POP POP JUMP JUMPDEST PUSH2 0x1874 DUP2 PUSH2 0x1426 JUMP JUMPDEST DUP3 MSTORE POP POP JUMP JUMPDEST PUSH1 0x0 PUSH2 0x140 DUP4 ADD PUSH1 0x0 DUP4 ADD MLOAD DUP5 DUP3 SUB PUSH1 0x0 DUP7 ADD MSTORE PUSH2 0x1898 DUP3 DUP3 PUSH2 0x1832 JUMP JUMPDEST SWAP2 POP POP PUSH1 0x20 DUP4 ADD MLOAD DUP5 DUP3 SUB PUSH1 0x20 DUP7 ADD MSTORE PUSH2 0x18B2 DUP3 DUP3 PUSH2 0x1832 JUMP JUMPDEST SWAP2 POP POP PUSH1 0x40 DUP4 ADD MLOAD DUP5 DUP3 SUB PUSH1 0x40 DUP7 ADD MSTORE PUSH2 0x18CC DUP3 DUP3 PUSH2 0x1832 JUMP JUMPDEST SWAP2 POP POP PUSH1 0x60 DUP4 ADD MLOAD PUSH2 0x18E1 PUSH1 0x60 DUP7 ADD DUP3 PUSH2 0x186B JUMP JUMPDEST POP PUSH1 0x80 DUP4 ADD MLOAD PUSH2 0x18F4 PUSH1 0x80 DUP7 ADD DUP3 PUSH2 0x186B JUMP JUMPDEST POP PUSH1 0xA0 DUP4 ADD MLOAD PUSH2 0x1907 PUSH1 0xA0 DUP7 ADD DUP3 PUSH2 0x186B JUMP JUMPDEST POP PUSH1 0xC0 DUP4 ADD MLOAD PUSH2 0x191A PUSH1 0xC0 DUP7 ADD DUP3 PUSH2 0x186B JUMP JUMPDEST POP PUSH1 0xE0 DUP4 ADD MLOAD PUSH2 0x192D PUSH1 0xE0 DUP7 ADD DUP3 PUSH2 0x186B JUMP JUMPDEST POP PUSH2 0x100 DUP4 ADD MLOAD PUSH2 0x1942 PUSH2 0x100 DUP7 ADD DUP3 PUSH2 0x186B JUMP JUMPDEST POP PUSH2 0x120 DUP4 ADD MLOAD PUSH2 0x1957 PUSH2 0x120 DUP7 ADD DUP3 PUSH2 0x186B JUMP JUMPDEST POP DUP1 SWAP2 POP POP SWAP3 SWAP2 POP POP JUMP JUMPDEST PUSH1 0x0 PUSH2 0x196E DUP4 DUP4 PUSH2 0x187A JUMP JUMPDEST SWAP1 POP SWAP3 SWAP2 POP POP JUMP JUMPDEST PUSH1 0x0 PUSH1 0x20 DUP3 ADD SWAP1 POP SWAP2 SWAP1 POP JUMP JUMPDEST PUSH1 0x0 PUSH2 0x198E DUP3 PUSH2 0x17F5 JUMP JUMPDEST PUSH2 0x1998 DUP2 DUP6 PUSH2 0x1800 JUMP JUMPDEST SWAP4 POP DUP4 PUSH1 0x20 DUP3 MUL DUP6 ADD PUSH2 0x19AA DUP6 PUSH2 0x1811 JUMP JUMPDEST DUP1 PUSH1 0x0 JUMPDEST DUP6 DUP2 LT ISZERO PUSH2 0x19E6 JUMPI DUP5 DUP5 SUB DUP10 MSTORE DUP2 MLOAD PUSH2 0x19C7 DUP6 DUP3 PUSH2 0x1962 JUMP JUMPDEST SWAP5 POP PUSH2 0x19D2 DUP4 PUSH2 0x1976 JUMP JUMPDEST SWAP3 POP PUSH1 0x20 DUP11 ADD SWAP10 POP POP PUSH1 0x1 DUP2 ADD SWAP1 POP PUSH2 0x19AE JUMP JUMPDEST POP DUP3 SWAP8 POP DUP8 SWAP6 POP POP POP POP POP POP SWAP3 SWAP2 POP POP JUMP JUMPDEST PUSH1 0x0 PUSH1 0x20 DUP3 ADD SWAP1 POP DUP2 DUP2 SUB PUSH1 0x0 DUP4 ADD MSTORE PUSH2 0x1A12 DUP2 DUP5 PUSH2 0x1983 JUMP JUMPDEST SWAP1 POP SWAP3 SWAP2 POP POP JUMP JUMPDEST PUSH1 0x0 PUSH1 0x20 DUP3 DUP5 SUB SLT ISZERO PUSH2 0x1A30 JUMPI PUSH2 0x1A2F PUSH2 0x146A JUMP JUMPDEST JUMPDEST PUSH1 0x0 PUSH2 0x1A3E DUP5 DUP3 DUP6 ADD PUSH2 0x1753 JUMP JUMPDEST SWAP2 POP POP SWAP3 SWAP2 POP POP JUMP JUMPDEST PUSH1 0x0 DUP1 PUSH1 0x0 DUP1 PUSH1 0x0 DUP1 PUSH1 0x0 DUP1 PUSH1 0x0 PUSH2 0x120 DUP11 DUP13 SUB SLT ISZERO PUSH2 0x1A6A JUMPI PUSH2 0x1A69 PUSH2 0x146A JUMP JUMPDEST JUMPDEST PUSH1 0x0 DUP11 ADD CALLDATALOAD PUSH8 0xFFFFFFFFFFFFFFFF DUP2 GT ISZERO PUSH2 0x1A88 JUMPI PUSH2 0x1A87 PUSH2 0x146F JUMP JUMPDEST JUMPDEST PUSH2 0x1A94 DUP13 DUP3 DUP14 ADD PUSH2 0x158C JUMP JUMPDEST SWAP10 POP POP PUSH1 0x20 DUP11 ADD CALLDATALOAD PUSH8 0xFFFFFFFFFFFFFFFF DUP2 GT ISZERO PUSH2 0x1AB5 JUMPI PUSH2 0x1AB4 PUSH2 0x146F JUMP JUMPDEST JUMPDEST PUSH2 0x1AC1 DUP13 DUP3 DUP14 ADD PUSH2 0x158C JUMP JUMPDEST SWAP9 POP POP PUSH1 0x40 DUP11 ADD CALLDATALOAD PUSH8 0xFFFFFFFFFFFFFFFF DUP2 GT ISZERO PUSH2 0x1AE2 JUMPI PUSH2 0x1AE1 PUSH2 0x146F JUMP JUMPDEST JUMPDEST PUSH2 0x1AEE DUP13 DUP3 DUP14 ADD PUSH2 0x158C JUMP JUMPDEST SWAP8 POP POP PUSH1 0x60 PUSH2 0x1AFF DUP13 DUP3 DUP14 ADD PUSH2 0x1753 JUMP JUMPDEST SWAP7 POP POP PUSH1 0x80 PUSH2 0x1B10 DUP13 DUP3 DUP14 ADD PUSH2 0x1753 JUMP JUMPDEST SWAP6 POP POP PUSH1 0xA0 PUSH2 0x1B21 DUP13 DUP3 DUP14 ADD PUSH2 0x1753 JUMP JUMPDEST SWAP5 POP POP PUSH1 0xC0 PUSH2 0x1B32 DUP13 DUP3 DUP14 ADD PUSH2 0x1753 JUMP JUMPDEST SWAP4 POP POP PUSH1 0xE0 PUSH2 0x1B43 DUP13 DUP3 DUP14 ADD PUSH2 0x1753 JUMP JUMPDEST SWAP3 POP POP PUSH2 0x100 PUSH2 0x1B55 DUP13 DUP3 DUP14 ADD PUSH2 0x1753 JUMP JUMPDEST SWAP2 POP POP SWAP3 SWAP6 SWAP9 POP SWAP3 SWAP6 SWAP9 POP SWAP3 SWAP6 SWAP9 JUMP JUMPDEST PUSH1 0x0 DUP2 SWAP1 POP SWAP3 SWAP2 POP POP JUMP JUMPDEST PUSH1 0x0 PUSH2 0x1B7B DUP3 PUSH2 0x1603 JUMP JUMPDEST PUSH2 0x1B85 DUP2 DUP6 PUSH2 0x1B65 JUMP JUMPDEST SWAP4 POP PUSH2 0x1B95 DUP2 DUP6 PUSH1 0x20 DUP7 ADD PUSH2 0x161F JUMP JUMPDEST DUP1 DUP5 ADD SWAP2 POP POP SWAP3 SWAP2 POP POP JUMP JUMPDEST PUSH1 0x0 PUSH2 0x1BAD DUP3 DUP5 PUSH2 0x1B70 JUMP JUMPDEST SWAP2 POP DUP2 SWAP1 POP SWAP3 SWAP2 POP POP JUMP JUMPDEST PUSH32 0x4E487B7100000000000000000000000000000000000000000000000000000000 PUSH1 0x0 MSTORE PUSH1 0x22 PUSH1 0x4 MSTORE PUSH1 0x24 PUSH1 0x0 REVERT JUMPDEST PUSH1 0x0 PUSH1 0x2 DUP3 DIV SWAP1 POP PUSH1 0x1 DUP3 AND DUP1 PUSH2 0x1BFF JUMPI PUSH1 0x7F DUP3 AND SWAP2 POP JUMPDEST PUSH1 0x20 DUP3 LT DUP2 EQ ISZERO PUSH2 0x1C13 JUMPI PUSH2 0x1C12 PUSH2 0x1BB8 JUMP JUMPDEST JUMPDEST POP SWAP2 SWAP1 POP JUMP JUMPDEST PUSH1 0x0 DUP2 SWAP1 POP DUP2 PUSH1 0x0 MSTORE PUSH1 0x20 PUSH1 0x0 KECCAK256 SWAP1 POP SWAP2 SWAP1 POP JUMP JUMPDEST PUSH1 0x0 DUP2 SLOAD PUSH2 0x1C3B DUP2 PUSH2 0x1BE7 JUMP JUMPDEST PUSH2 0x1C45 DUP2 DUP7 PUSH2 0x1B65 JUMP JUMPDEST SWAP5 POP PUSH1 0x1 DUP3 AND PUSH1 0x0 DUP2 EQ PUSH2 0x1C60 JUMPI PUSH1 0x1 DUP2 EQ PUSH2 0x1C71 JUMPI PUSH2 0x1CA4 JUMP JUMPDEST PUSH1 0xFF NOT DUP4 AND DUP7 MSTORE DUP2 DUP7 ADD SWAP4 POP PUSH2 0x1CA4 JUMP JUMPDEST PUSH2 0x1C7A DUP6 PUSH2 0x1C19 JUMP JUMPDEST PUSH1 0x0 JUMPDEST DUP4 DUP2 LT ISZERO PUSH2 0x1C9C JUMPI DUP2 SLOAD DUP2 DUP10 ADD MSTORE PUSH1 0x1 DUP3 ADD SWAP2 POP PUSH1 0x20 DUP2 ADD SWAP1 POP PUSH2 0x1C7D JUMP JUMPDEST DUP4 DUP9 ADD SWAP6 POP POP POP JUMPDEST POP POP POP SWAP3 SWAP2 POP POP JUMP JUMPDEST PUSH1 0x0 PUSH2 0x1CB9 DUP3 DUP5 PUSH2 0x1C2E JUMP JUMPDEST SWAP2 POP DUP2 SWAP1 POP SWAP3 SWAP2 POP POP JUMP JUMPDEST PUSH32 0x4E487B7100000000000000000000000000000000000000000000000000000000 PUSH1 0x0 MSTORE PUSH1 0x11 PUSH1 0x4 MSTORE PUSH1 0x24 PUSH1 0x0 REVERT JUMPDEST PUSH1 0x0 PUSH2 0x1CFE DUP3 PUSH2 0x1426 JUMP JUMPDEST SWAP2 POP PUSH4 0xFFFFFFFF DUP3 EQ ISZERO PUSH2 0x1D15 JUMPI PUSH2 0x1D14 PUSH2 0x1CC4 JUMP JUMPDEST JUMPDEST PUSH1 0x1 DUP3 ADD SWAP1 POP SWAP2 SWAP1 POP JUMP JUMPDEST PUSH1 0x0 PUSH2 0x1D2B DUP3 PUSH2 0x1426 JUMP JUMPDEST SWAP2 POP PUSH2 0x1D36 DUP4 PUSH2 0x1426 JUMP JUMPDEST SWAP3 POP DUP2 PUSH4 0xFFFFFFFF DIV DUP4 GT DUP3 ISZERO ISZERO AND ISZERO PUSH2 0x1D53 JUMPI PUSH2 0x1D52 PUSH2 0x1CC4 JUMP JUMPDEST JUMPDEST DUP3 DUP3 MUL SWAP1 POP SWAP3 SWAP2 POP POP JUMP JUMPDEST PUSH1 0x0 PUSH2 0x1D69 DUP3 PUSH2 0x1426 JUMP JUMPDEST SWAP2 POP PUSH2 0x1D74 DUP4 PUSH2 0x1426 JUMP JUMPDEST SWAP3 POP DUP3 PUSH4 0xFFFFFFFF SUB DUP3 GT ISZERO PUSH2 0x1D8D JUMPI PUSH2 0x1D8C PUSH2 0x1CC4 JUMP JUMPDEST JUMPDEST DUP3 DUP3 ADD SWAP1 POP SWAP3 SWAP2 POP POP JUMP JUMPDEST PUSH32 0x4E487B7100000000000000000000000000000000000000000000000000000000 PUSH1 0x0 MSTORE PUSH1 0x12 PUSH1 0x4 MSTORE PUSH1 0x24 PUSH1 0x0 REVERT JUMPDEST PUSH1 0x0 PUSH2 0x1DD2 DUP3 PUSH2 0x1426 JUMP JUMPDEST SWAP2 POP PUSH2 0x1DDD DUP4 PUSH2 0x1426 JUMP JUMPDEST SWAP3 POP DUP3 PUSH2 0x1DED JUMPI PUSH2 0x1DEC PUSH2 0x1D98 JUMP JUMPDEST JUMPDEST DUP3 DUP3 DIV SWAP1 POP SWAP3 SWAP2 POP POP JUMP JUMPDEST PUSH32 0x4E487B7100000000000000000000000000000000000000000000000000000000 PUSH1 0x0 MSTORE PUSH1 0x32 PUSH1 0x4 MSTORE PUSH1 0x24 PUSH1 0x0 REVERT INVALID LOG2 PUSH5 0x6970667358 0x22 SLT KECCAK256 AND 0x21 PUSH29 0x72D392963BE09F4F33BEC74E0D804AC9AD005EA6408C4BE7B04B95108E PUSH5 0x736F6C6343 STOP ADDMOD SIGNEXTEND STOP CALLER "
		},
		"gasEstimates": {
			"creation": {
				"codeDepositCost": "1554600",
				"executionCost": "25891",
				"totalCost": "1580491"
			},
			"external": {
				"Students(uint32)": "infinite",
				"addStudentMarks(string,string,string,uint32,uint32,uint32,uint32,uint32,uint32)": "infinite",
				"calcGPA(uint32,uint32,uint32,uint32,uint32,uint32)": "infinite",
				"getCurrentStudent(string)": "infinite",
				"listAllStudents()": "infinite",
				"student_id()": "2446"
			}
		},
		"methodIdentifiers": {
			"Students(uint32)": "e2caac79",
			"addStudentMarks(string,string,string,uint32,uint32,uint32,uint32,uint32,uint32)": "e3aba04e",
			"calcGPA(uint32,uint32,uint32,uint32,uint32,uint32)": "8d29931a",
			"getCurrentStudent(string)": "6f5762f4",
			"listAllStudents()": "ae9af89d",
			"student_id()": "5099d497"
		}
	},
	"abi": [
		{
			"inputs": [
				{
					"internalType": "uint32",
					"name": "",
					"type": "uint32"
				}
			],
			"name": "Students",
			"outputs": [
				{
					"internalType": "string",
					"name": "name",
					"type": "string"
				},
				{
					"internalType": "string",
					"name": "studID",
					"type": "string"
				},
				{
					"internalType": "string",
					"name": "progCode",
					"type": "string"
				},
				{
					"internalType": "uint32",
					"name": "Part",
					"type": "uint32"
				},
				{
					"internalType": "uint32",
					"name": "sub1",
					"type": "uint32"
				},
				{
					"internalType": "uint32",
					"name": "sub2",
					"type": "uint32"
				},
				{
					"internalType": "uint32",
					"name": "sub3",
					"type": "uint32"
				},
				{
					"internalType": "uint32",
					"name": "sub4",
					"type": "uint32"
				},
				{
					"internalType": "uint32",
					"name": "sub5",
					"type": "uint32"
				},
				{
					"internalType": "uint32",
					"name": "gpa",
					"type": "uint32"
				}
			],
			"stateMutability": "view",
			"type": "function"
		},
		{
			"inputs": [
				{
					"internalType": "string",
					"name": "_name",
					"type": "string"
				},
				{
					"internalType": "string",
					"name": "_studID",
					"type": "string"
				},
				{
					"internalType": "string",
					"name": "_progCode",
					"type": "string"
				},
				{
					"internalType": "uint32",
					"name": "_part",
					"type": "uint32"
				},
				{
					"internalType": "uint32",
					"name": "_sub1",
					"type": "uint32"
				},
				{
					"internalType": "uint32",
					"name": "_sub2",
					"type": "uint32"
				},
				{
					"internalType": "uint32",
					"name": "_sub3",
					"type": "uint32"
				},
				{
					"internalType": "uint32",
					"name": "_sub4",
					"type": "uint32"
				},
				{
					"internalType": "uint32",
					"name": "_sub5",
					"type": "uint32"
				}
			],
			"name": "addStudentMarks",
			"outputs": [
				{
					"internalType": "uint32",
					"name": "",
					"type": "uint32"
				}
			],
			"stateMutability": "nonpayable",
			"type": "function"
		},
		{
			"inputs": [
				{
					"internalType": "uint32",
					"name": "a",
					"type": "uint32"
				},
				{
					"internalType": "uint32",
					"name": "b",
					"type": "uint32"
				},
				{
					"internalType": "uint32",
					"name": "c",
					"type": "uint32"
				},
				{
					"internalType": "uint32",
					"name": "d",
					"type": "uint32"
				},
				{
					"internalType": "uint32",
					"name": "e",
					"type": "uint32"
				},
				{
					"internalType": "uint32",
					"name": "f",
					"type": "uint32"
				}
			],
			"name": "calcGPA",
			"outputs": [
				{
					"internalType": "uint32",
					"name": "",
					"type": "uint32"
				}
			],
			"stateMutability": "view",
			"type": "function"
		},
		{
			"inputs": [
				{
					"internalType": "string",
					"name": "_studID",
					"type": "string"
				}
			],
			"name": "getCurrentStudent",
			"outputs": [
				{
					"internalType": "string",
					"name": "a",
					"type": "string"
				},
				{
					"internalType": "string",
					"name": "b",
					"type": "string"
				},
				{
					"internalType": "string",
					"name": "c",
					"type": "string"
				},
				{
					"internalType": "uint32",
					"name": "d",
					"type": "uint32"
				},
				{
					"internalType": "uint32",
					"name": "e",
					"type": "uint32"
				},
				{
					"internalType": "uint32",
					"name": "f",
					"type": "uint32"
				},
				{
					"internalType": "uint32",
					"name": "g",
					"type": "uint32"
				},
				{
					"internalType": "uint32",
					"name": "h",
					"type": "uint32"
				},
				{
					"internalType": "uint32",
					"name": "i",
					"type": "uint32"
				},
				{
					"internalType": "uint32",
					"name": "k",
					"type": "uint32"
				}
			],
			"stateMutability": "view",
			"type": "function"
		},
		{
			"inputs": [],
			"name": "listAllStudents",
			"outputs": [
				{
					"components": [
						{
							"internalType": "string",
							"name": "name",
							"type": "string"
						},
						{
							"internalType": "string",
							"name": "studID",
							"type": "string"
						},
						{
							"internalType": "string",
							"name": "progCode",
							"type": "string"
						},
						{
							"internalType": "uint32",
							"name": "Part",
							"type": "uint32"
						},
						{
							"internalType": "uint32",
							"name": "sub1",
							"type": "uint32"
						},
						{
							"internalType": "uint32",
							"name": "sub2",
							"type": "uint32"
						},
						{
							"internalType": "uint32",
							"name": "sub3",
							"type": "uint32"
						},
						{
							"internalType": "uint32",
							"name": "sub4",
							"type": "uint32"
						},
						{
							"internalType": "uint32",
							"name": "sub5",
							"type": "uint32"
						},
						{
							"internalType": "uint32",
							"name": "gpa",
							"type": "uint32"
						}
					],
					"internalType": "struct ResultManagement.Student[]",
					"name": "",
					"type": "tuple[]"
				}
			],
			"stateMutability": "view",
			"type": "function"
		},
		{
			"inputs": [],
			"name": "student_id",
			"outputs": [
				{
					"internalType": "uint32",
					"name": "",
					"type": "uint32"
				}
			],
			"stateMutability": "view",
			"type": "function"
		}
	]
}